:020000040800F2
:10000000600600206D0100080D040008DF030008F1
:10001000090400081F020008F107000800000000A2
:100020000000000000000000000000005104000873
:1000300023020008000000000F0400083D0500082E
:100040008701000887010008870100088701000870
:100050008701000887010008870100088701000860
:100060008701000887010008870100088701000850
:100070008701000887010008870100088701000840
:100080008701000887010008870100088701000830
:100090008701000887010008870100088701000820
:1000A0008701000887010008870100088701000810
:1000B0008701000887010008870100088701000800
:1000C00087010008870100088701000887010008F0
:1000D00087010008870100088701000887010008E0
:1000E00087010008870100088701000800F002F876
:1000F00000F02CF80AA090E8000C82448344AAF196
:100100000107DA4501D100F021F8AFF2090EBAE893
:100110000F0013F0010F18BFFB1A43F0010318473B
:1001200018070000280700000023002400250026EF
:10013000103A28BF78C1FBD8520728BF30C148BF4A
:100140000B6070471FB51FBD10B510BD00F031F832
:100150001146FFF7F7FF00F04DFB00F04FF803B436
:10016000FFF7F2FF03BC00F053F800000948804796
:1001700009480047FEE7FEE7FEE7FEE7FEE7FEE789
:10018000FEE7FEE7FEE7FEE704480549054A064BA1
:100190007047000041050008ED00000860000020E5
:1001A0006006002060020020600200207047704757
:1001B0007047754600F028F8AE460500694653467C
:1001C00020F00700854618B020B5FFF7DDFFBDE839
:1001D00020404FF000064FF000074FF000084FF0AE
:1001E000000B21F00701AC46ACE8C009ACE8C0093F
:1001F000ACE8C009ACE8C0098D4670470446AFF3CF
:1002000000802046FFF7ABFF004870470000002049
:1002100001491820ABBEFEE726000200704700BF70
:10022000FEE770472DE9F041024600250026002038
:1002300000230024002791F803C00CF00F0591F86B
:1002400003C00CF0100CBCF1000F03D091F802C0F9
:100250004CEA050591F800C0BCF1000F31D01468DC
:1002600000202BE04FF0010C0CFA00F3B1F800C0B5
:100270000CEA03069E4220D183004FF00F0C0CFACB
:1002800003F7BC4305FA03FC4CEA040491F803C0ED
:10029000BCF1280F06D14FF0010C0CFA00FCC2F89B
:1002A00014C00AE091F803C0BCF1480F05D14FF02B
:1002B000010C0CFA00FCC2F810C0401C0828D1D375
:1002C0001460B1F800C0BCF1FF0F34DD54680020A9
:1002D0002EE000F1080C4FF0010808FA0CF3B1F819
:1002E00000C00CEA03069E4221D183004FF00F0CA0
:1002F0000CFA03F7BC4305FA03FC4CEA040491F83A
:1003000003C0BCF1280F05D100F1080C08FA0CF865
:10031000C2F8148091F803C0BCF1480F07D100F176
:10032000080C4FF0010808FA0CF8C2F81080401CC5
:100330000828CED35460BDE8F0810000F0B50A462D
:10034000002300240021002500F00046B6F1004FF4
:1003500002D11D4EF16901E01B4E7168C0F30345E7
:1003600083B200F44016B6F5401F08D121F0706149
:10037000154E766826F07066134F7E6012E000F42A
:100380008016B6F5801F06D1032606FA05F4A143B0
:1003900041F0706106E0460D360103FA06F6B143FE
:1003A00041F0706122B1460D360103FA06F6314381
:1003B00000F00046B6F1004F02D1034EF16101E0BA
:1003C000014E7160F0BD00000000014002460020B7
:1003D00093680B400BB1012000E00020704700BF84
:1003E000FEE7000008B50121042000F021F84820B4
:1003F0008DF803006020ADF8000069460148FFF762
:1004000011FF08BD0008014000BFFEE770477047BC
:1004100029B1064AD2690243044BDA6104E0034A77
:10042000D2698243014BDA6170470000001002403C
:1004300029B1064A92690243044B9A6104E0034AD7
:1004400092698243014B9A6170470000001002409C
:10045000704710B500F002F810BD00000CB5002088
:10046000019000903348006840F4803031490860C2
:1004700000BF3048006800F4003000900198401C34
:100480000190009818B90198B0F5A06FF1D12948F2
:10049000006800F4003010B10120009001E000205D
:1004A00000900098012843D12348006840F01000D4
:1004B000214908600846006820F0030008600846EB
:1004C000006840F0020008601A4840681949486016
:1004D0000846406848600846406840F480604860CC
:1004E0000846406820F47C1048600846406840F4A4
:1004F000E81048600846006840F08070086000BF5F
:100500000C48006800F000700028F9D009484068E5
:1005100020F00300074948600846406840F00200A8
:10052000486000BF0348406800F00C000828F9D17B
:100530000CBD000000100240002002407047000087
:1005400010B51348006840F00100114908600846E2
:100550004068104908400E494860084600680E4946
:1005600008400B4908600846006820F480200860B5
:100570000846406820F4FE0048604FF41F00886081
:10058000FFF767FF4FF000600449086010BD0000EE
:10059000001002400000FFF8FFFFF6FE08ED00E04B
:1005A00000B589B001210920FFF742FF0121022097
:1005B000FFF72EFF01212148FFF7C0FE2020ADF8F4
:1005C000200018208DF8230003208DF8220008A9B0
:1005D0001B48FFF727FE40F26710ADF8140040F209
:1005E000E730ADF818000020ADF81A00ADF816009D
:1005F00005A9144800F0AAF87020ADF80400002006
:10060000ADF80C00C820ADF80A000120ADF80600D6
:1006100001A90D4800F042F808210B4800F08AF8C3
:100620000121094800F012F80121074800F01AF8EA
:100630000121054800F022F809B000BD00081A00A9
:1006400000080140002C01400004004021B1028854
:1006500042F08002028004E002884FF67F731A4065
:100660000280704721B1028842F00102028004E05A
:1006700002884FF6FE731A400280704731B1B0F81D
:10068000442042F40042A0F8442005E0B0F84420A1
:10069000C2F30E02A0F844207047000070B5002499
:1006A00000220023058C4FF6FE7635400584028C2F
:1006B0008388048B4FF68F752C40B51E2C400D8817
:1006C0002C43751E2A400D892A434D882A43144D18
:1006D000A8420BD0134DA84208D0134DA84205D014
:1006E000124DA84202D0124DA84213D14FF6F77511
:1006F0002A404D892A434FF6FB752A408D882A43AC
:100700004FF6FF652B404FF6FF552B408D892B434D
:10071000CD892B4383800483CD888586028470BD78
:10072000002C0140003401400040014000440140E1
:10073000004801400A460021018B4FF6F77319402B
:10074000114301837047018770470000002202882F
:100750001D4B98420ED01D4B98420BD0B0F1804FEC
:1007600008D01B4B984205D01A4B984202D01A4B26
:10077000984204D14FF68F731A404B881A43174B97
:10078000984207D0164B984204D04FF6FF431A40C8
:10079000CB881A4302808B8883850B8803850A4B9C
:1007A00098420BD0094B984208D00E4B984205D086
:1007B0000D4B984202D00D4B984201D10B7A038623
:1007C0000123838270470000002C01400034014067
:1007D0000004004000080040000C004000100040F1
:1007E0000014004000400140004401400048014026
:1007F00000BFFEE7C824FFF7D3FEFFF7F3FD16E0C6
:1008000020210B48FFF7E2FD20B90A34B4F5617FDF
:1008100000DB002440210648FFF7D8FD18B90A3C48
:10082000002C00DC0024A1B20248FFF78CFFE7E7B0
:1008300000080140000400404808000800000020B3
:08084000600600002801000819
:04000005080000ED02
:00000001FF
