:020000040800F2
:10000000980E002001010008230600081F030008C5
:100010001F060008C3010008710C00080000000062
:10002000000000000000000000000000210B00089C
:10003000C701000800000000010800080D0C0008BE
:100040001B0100081B0100081B0100081B01000820
:100050001B0100081B0100081B0100081B01000810
:100060001B0100081B0100081B0100081B01000800
:100070001B0100081B0100081B0100081B010008F0
:100080001B0100081B0100081B0100081B010008E0
:100090001B0100081B0100081B0100081B010008D0
:1000A0001B0100081B0100081B0100081B010008C0
:1000B0001B0100081B0100081B0100081B010008B0
:1000C0001B0100081B0100081B0100081B010008A0
:1000D0001B0100081B0100081B0100081B01000890
:1000E0001B0100081B0100081B010008DFF80CD0F1
:1000F00000F02AF800480047950C0008980E0020F0
:100100000648804706480047FEE7FEE7FEE7FEE7B1
:10011000FEE7FEE7FEE7FEE7FEE7FEE7110C00085C
:10012000ED00000840EA01039B0703D009E008C97D
:10013000121F08C0042AFAD203E011F8013B00F8AC
:10014000013B521EF9D27047064C074D06E0E068AD
:1001500040F0010394E8070098471034AC42F6D30E
:10016000FFF7C8FFF80C0008180D000870B58C18D0
:1001700010F8015B15F0070301D110F8013B2A11BB
:1001800006D110F8012B03E010F8016B01F8016BA8
:100190005B1EF9D12B0705D40023521E0DD401F8A4
:1001A000013BFAE710F8013BCB1A921C03E013F86D
:1001B000015B01F8015B521EF9D5A142D8D30020A2
:1001C00070BD00BFFEE77047002100E0491C81427E
:1001D000FCD370470549096821F01001034A1160FA
:1001E0001146096801431160704700000020024079
:1001F00001460020034A106800F0380008431060F0
:1002000070470000002002402DE9F0410246002521
:100210000026002000230024002791F803C00CF0E2
:100220000F0591F803C00CF0100CBCF1000F03D0C7
:1002300091F802C04CEA050591F800C0BCF1000F2E
:1002400031D0146800202BE04FF0010C0CFA00F3C1
:10025000B1F800C00CEA03069E4220D183004FF0A3
:100260000F0C0CFA03F7BC4305FA03FC4CEA040438
:1002700091F803C0BCF1280F06D14FF0010C0CFA25
:1002800000FCC2F814C00AE091F803C0BCF1480FAA
:1002900005D14FF0010C0CFA00FCC2F810C0401C54
:1002A0000828D1D31460B1F800C0BCF1FF0F34DDD1
:1002B000546800202EE000F1080C4FF0010808FA05
:1002C0000CF3B1F800C00CEA03069E4221D1830072
:1002D0004FF00F0C0CFA03F7BC4305FA03FC4CEA91
:1002E000040491F803C0BCF1280F05D100F1080CFB
:1002F00008FA0CF8C2F8148091F803C0BCF1480F5A
:1003000007D100F1080C4FF0010808FA0CF8C2F808
:100310001080401C0828CED35460BDE8F08100BF97
:10032000FEE770B502460024002500230020958AD0
:10033000138B1B0445EA030626F07F4404EA0106FA
:100340008E4201D1012000E0002070BD21B1028861
:1003500042F00102028004E002884FF6FE731A4068
:10036000028070471FB500F021F80020ADF80400AE
:100370004BF6FF70ADF80600C020ADF808004FF452
:100380008060ADF80A000001ADF80C00054800904F
:100390006946054800F03CF801210348FFF7D6FF05
:1003A0001FBD0000400D03000054004008B50121AE
:1003B0001C2000F037FA0121480500F023FAC02084
:1003C000ADF800001C208DF8030003208DF802001A
:1003D00069460248FFF718FF08BD0000000C014005
:1003E00021B1028842F48072028004E002884FF654
:1003F000FF631A400280704721B1028842F4007204
:10040000028004E002884FF6FF531A4002807047D2
:100410002DE9F04385B004460D460026B146042779
:10042000DFF8CC80A6884FF6C0700640684600F022
:1004300061FADDF808802F48B8FBF0F01FFA80F968
:1004400046EA0906A68020884FF6FE710840208003
:1004500000262949286888420CD828684000B8FB43
:10046000F0F087B2042F00DA04273E4309F10100BF
:10047000208427E0E8884BF6FF71884206D128687F
:1004800000EB4000B8FBF0F087B209E0286800EB11
:10049000C00101EB0010B8FBF0F087B247F48047D1
:1004A000C7F30B0008B947F0010747F400400643C3
:1004B0004FF4967009FB00F04FF47A7190FBF1F065
:1004C000401C2084A683208840F0010020802688DC
:1004D0004FF6F5300640A888698908430643268010
:1004E000A88929890843208105B0BDE8F083000070
:1004F00000127A0040420F00A08601002DE9F04171
:1005000005460F4614461E4601211D48FFF768FFA9
:1005100000BF1C491A48FFF704FF0028F9D0002249
:100520002946174800F070F800BF17491448FFF734
:10053000F8FE0028F9D03946114800F06EF800BFE7
:100540001149891C0E48FFF7ECFE0028F8D00CE09A
:1005500021780B4800F061F8641C00BF0A49891C2F
:100560000748FFF7DEFE0028F8D03000A6F10101B1
:100570008EB2EDD101210248FFF73EFFBDE8F081C8
:1005800000540040010003008200070070B50446DB
:100590000E46154601211948FFF722FF00BF1849F2
:1005A0001648FFF7BEFE0028F9D000222146134866
:1005B00000F02AF800BF13491048FFF7B2FE0028E8
:1005C000F9D031460D4800F028F800BF0D49891CCC
:1005D0000A48FFF7A6FE0028F8D02946074800F091
:1005E0001CF800BF0749891C0448FFF79AFE002841
:1005F000F8D001210148FFF7FFFE70BD0054004014
:10060000010003008200070012B141F0010102E085
:100610004FF6FE731940018270470182704700BF98
:10062000FEE7704710B500F095F800F063F800F0B1
:100630009FF810BD2DE9F04705460C4616464FF0D1
:10064000000AA01CC4B2D1463AE005F1B000C2B223
:1006500000217820FFF79AFF2746E01704EB10707F
:1006600000111030C2B200217820FFF78FFFE01791
:1006700004EB10700011A4EB0010C2B2002178202E
:10068000FFF784FF4FF0000811E00AEB0610A0F519
:1006900000700E490A5C40217820FFF777FF0AF1CD
:1006A000010000F0FF0A08F1010000F0FF08B8F1B6
:1006B000080FEADB681CC5B209F1010000F0FF0970
:1006C000B9F1020FC1DBBDE8F08700001400002083
:1006D00070B506460C46002508E014F8012BE80624
:1006E000010E3046FFF7A6FF681CC5B2207800282F
:1006F000F3D170BD70B5B0241BE0224600217820F4
:10070000FFF744FF102200217820FFF73FFF00226F
:1007100011467820FFF73AFF002506E0002240212D
:100720007820FFF733FF681CC5B2842DF6DB601C10
:10073000C4B2B82CE1DB70BD10B5044681220021A3
:100740007820FFF723FF224600217820FFF71EFFC5
:1007500010BD000008B505A00068009003236A469C
:1007600000217820FFF7CAFE08BD0000AE8D100002
:1007700000B587B01C2206A16846FFF7D3FC1C23F6
:100780006A4600217820FFF7B9FE07B000BD0000DF
:10079000AE0010D580A83FD300B0408D14A1C8DAB8
:1007A0001281FFD9F1DB302000A4A6AF70B5002480
:1007B00020E004F1B000C2B200217820FFF7E6FE8D
:1007C000102200217820FFF7E1FE0222002178208C
:1007D000FFF7DCFE002509E005EBC41007490A5CC1
:1007E00040217820FFF7D2FE681CC5B2802DF3DBD4
:1007F000601CC4B2082CDCDB70BD00009406002035
:100800007047000029B1064AD2690243044BDA61FD
:1008100004E0034AD2698243014BDA617047000069
:100820000010024029B1064A92690243044B9A61C2
:1008300004E0034A92698243014B9A6170470000C9
:100840000010024010B500F02FF84FF4803000F097
:10085000EDF800F049F90446012C24D14FF4E011E1
:10086000000400F027F9002000F0D4F8A00200F006
:1008700003F9002000F00CF90220FFF7B9FC10206A
:10088000FFF7A8FC012000F00FF900BF392000F0AD
:100890009BF80028FAD0022000F01AF900BF00F0FF
:1008A000B1F80828FBD110BD0F48006840F00100E6
:1008B0000D490860084640680C4908400A494860EC
:1008C000084600680A490840074908600846006869
:1008D00020F4802008600846406820F4FE0048604C
:1008E0004FF41F0088607047001002400000FFF8BE
:1008F000FFFFF6FE30B500210022002400232D4D1D
:100900006D6805F00C0121B1042905D0082923D117
:1009100005E0294D056022E0274D05601FE0254DCB
:100920006D6805F47012234D6D6805F4803402255E
:1009300005EB92421CB9214D554305600BE01D4D5E
:100940006D6805F400351DB11C4D5543056002E08E
:10095000194D5543056002E0174D056000BF00BF0B
:10096000144D6D6805F0F0010909154D6B5C0568C3
:10097000DD4045600F4D6D6805F4E061090A104DDA
:100980006B5C4568DD4085600A4D6D6805F460511B
:10099000C90A0B4D6B5C4568DD40C560054D6D684F
:1009A00005F44041890B074D6B5CC568B5FBF3F559
:1009B000056130BD0010024000127A0000093D00C0
:1009C000000000201000002010B501460022002386
:1009D00000204A11012A02D1094C236806E0022AAC
:1009E00002D1074C236A01E0054C636A01F01F0243
:1009F000012494401C400CB1012000E0002010BDF7
:100A0000001002400248406800F00C0070470000EF
:100A10000010024001460020034A506820F0F00018
:100A200008435060704700000010024011490968F7
:100A300021F480310F4A11601146096821F48021A8
:100A40001160B0F5803F03D0B0F5802F0ED106E0E5
:100A50000849096841F48031064A116007E00549F8
:100A6000096841F4A021034A116000E000BF00BF03
:100A7000704700000010024001460020034A506801
:100A800020F4E0600843506070470000001002400E
:100A900001460020034A506820F4605040EAC1003B
:100AA000506070470010024001490866704700001E
:100AB0000000424202460020044B586820F47C109B
:100AC00042EA01031843014B58607047001002408E
:100AD00001460020034A506820F00300084350609C
:100AE000704700000010024038B50020009000243C
:100AF000002500BF3120FFF767FF05460098401C26
:100B000000900098B0F5A06F01D0002DF2D03120F8
:100B1000FFF75AFF08B1012400E00024204638BD49
:100B2000704710B500F002F810BD00000CB50020B1
:100B3000019000903348006840F4803031490860EB
:100B400000BF3048006800F4003000900198401C5D
:100B50000190009818B90198B0F5A06FF1D129481B
:100B6000006800F4003010B10120009001E0002086
:100B700000900098012843D12348006840F01000FD
:100B8000214908600846006820F003000860084614
:100B9000006840F0020008601A484068194948603F
:100BA0000846406848600846406840F480604860F5
:100BB0000846406820F47C1048600846406840F4CD
:100BC000E81048600846006840F08070086000BF88
:100BD0000C48006800F000700028F9D0094840680F
:100BE00020F00300074948600846406840F00200D2
:100BF000486000BF0348406800F00C000828F9D1A5
:100C00000CBD0000001002400020024070470000B0
:100C100010B51348006840F001001149086008460B
:100C20004068104908400E494860084600680E496F
:100C300008400B4908600846006820F480200860DE
:100C40000846406820F4FE0048604FF41F008860AA
:100C5000FFF767FF4FF000600449086010BD000017
:100C6000001002400000FFF8FFFFF6FE08ED00E074
:100C700000BFFEE702E008C8121F08C1002AFAD12F
:100C800070477047002001E001C1121F002AFBD10C
:100C90007047000010B54FF47A70FFF795FAFFF730
:100CA000D1FDFFF75FFBFFF7BDFC6420FFF744FDBC
:100CB000FFF77CFD0748FFF787FAFFF71BFD06A14A
:100CC0000020FFF705FD08A10620FFF701FD002029
:100CD00010BD000080F0FA0220202020566F6E47E1
:100CE0006F747420000000002020202045744869A3
:100CF0006C6C202000000000180D0008000000208F
:100D0000940A00006C010008B0120008940A002048
:100D100004040000840C0008412D010203040400B7
:100D2000091206070809020406085538FCFC384376
:100D30000D0D230E1E931E0E2C20F8F803112C020D
:100D40000F0F03111008387C444747CC9810080354
:100D500006041C1C07031330301580C06030150CCE
:100D6000060301130C0C100880D87CE4BCD8401D8D
:100D7000070F080804219A104D5145F0F80C043C67
:100D800003070C8E45040CF8F01B080C4F111009DA
:100D900080A0E0C0C0E0A0801F0203010103021197
:100DA0003E80E0E0808031191FB149594A8001013D
:100DB00014198E5189A0311808F8FC04C424FCF8D9
:100DC000A01E0908080F07473C18FCFC7F1B080FF2
:100DD000B319861684C4643C182A0E2019421808D8
:100DE000080C444444FCB8A63A08303FC0E0B09830
:100DF000FCFC7029311178087C7C4444C4C48420F4
:100E00001808F0F84C4444C08060491030080C0CBD
:100E10000484C47C3C430F0F4BB8FC5069201A3843
:100E2000401A449019803C080C07E2633030630696
:100E30000659103B080E1029CE3318081601030678
:100E40000C084A4001114A020119271C1830608021
:100E500019B939F21E181C04C4E4D031330D0D2821
:100E600008F0F808C8C8F8F080150B0B0B0148080B
:100E7000E0F0988C98F0E09E19051B04FCA119A0E5
:100E800029DD49D0160C04040C181B0307E12B0CB8
:100E900006201B040C40292029B029304CE40C1CEE
:100EA00030BB0C0E104119404D84848C98401307C0
:100EB0000F1BFCFCAE7BFCFC7021295239E059323F
:100EC000491119A0297F290D2DC0F03C0C1E113BA2
:100ED000010F60792E29709EFCFC38703850291063
:100EE0009AE01029C029B0298069B07C447C386E12
:100EF0002808F8FC040404FCF8703D0E3C3F272051
:100F00003BC4FC2039401008183C6444C49C184C75
:100F1000060E08911D1C0CFCFCE069B0196B39052C
:100F200029B02920691028080103060C0603010BCB
:100F30002A80051008030F0E030E0F033C0C3CF033
:100F4000D01A0C0C24030F0C7F3C7CC0C07C3C509E
:100F500010081C0C84C4643C1C3C0E0F09E0294D95
:100F60003A04F229F12119DE63C0802C0103072025
:100F700019BF297411197F19B31A08763B060CDBC7
:100F8000D15A2001213B03074F8126A0A0A0E0C039
:100F900029C0190411194D1B20606219CC39D01BCE
:100FA000C0E0354B6040E0130C042D80C06024701D
:100FB00069304BC0E04169206F40F8FC440C18CE0A
:100FC0002129401904111F276F48487F3FAE1DFC9F
:100FD000FC40203039AD2904115420ECEC69325921
:100FE000121D3070404031193019732A201E2D0116
:100FF000030E0CF049EF59301EE0E060C06050195C
:101000004B1902120F195C2A2060395C190439C08F
:1010100069A019D069206D407F7F48E029A0192080
:101020002D487F7F40203C602060A0398E10084012
:10103000E0A0202060401008040C09090B0E0447B2
:101040002020F8FC2020193219F02BE0E084390E22
:101050001A0804490D29043F03070C0C07030B2948
:10106000052E070F0C070C804B60C0D0191D7C07A4
:101070000C08201008474F4848683F1F1E6060203A
:10108000A0E0201F0C0E0B09080CF05F4040F8BCDC
:10109000040471399363BCBC29E221270404BCF821
:1010A000404039DE19072C0C040C9881196D1A3058
:1010B0007311100807070404040707200810D01252
:1010C0001C10D0101FFF0808088C08902808271053
:1010D0001C1310FF410113FF01100A1010D0FF5024
:1010E000902040FF1DFF4020305F120317FF804417
:1010F000221907263F414640701BF848012AFF0588
:101100003AFC8E1B0702011B3F42012A471F2C801D
:101110008082011FE2A2928A868078510433408047
:101120007F1C08020262100D303030A0B8981858A9
:10113000584008101C203018B36220680904803021
:10114000B0B060604066013D200E40C0F4C4C6C629
:1011500084C4E4C8F8FC065010C0C08080C8C8C869
:1011600058C65881C1C0606056026002FFF826C0B0
:10117000C1C1C101140F7EE01C010101A738094063
:1011800014146CB878F0C0011A40013908013048D5
:101190001C8001733F7FBFFFBF2F2FAFFFFD656432
:1011A0003D6C6C24252C646C6C26368001BD86E079
:1011B0008FFEED4C031EE07400162DC2F0C0838F2D
:1011C000DFFFFE7A7E7E7E6A6A4A4A4A5A5A4A6A35
:1011D00068110204063C6C7C785E5D6F6F7F3E1E7A
:1011E0007FFF0119511E7E7F7F3F3F123A3F113A28
:1011F000E08B497719013BC71F011D0F0F03070241
:10120000014B781130FC7CFCFC8E8E8C98F8F8FC3D
:10121000FCDCFAFE9229016A7FA10355FB191F40ED
:10122000408080BBFBF314771F022301012E0101D4
:10123000030307011A03011C01013E8307573F3FC7
:101240003F57FF82100B9E1E0F0D07071F20A02087
:101250001F70E0E080F0E0019AF00100193FD0A992
:10126000F3E7FCD8F8B8FD0D0C40207060C060407A
:1012700040C0C08080801819E038F8FCFCF8F8FC09
:10128000FFFEFFDFFCF8EC143E0E0606650F3F7F05
:10129000EF1A7F05F9011810FEFEFAF4F0FEFCFECD
:1012A000FFF9FBFBFEBE7F26051B7E0C0C04000035
:04000005080000ED02
:00000001FF
