:020000040800F2
:1000000008040020010100088B0500088305000892
:1000100087050008670400087D090008000000004B
:10002000000000000000000000000000E9050008DA
:100030006B040008000000008D050008D5060008CC
:100040001B0100081B0100081B0100081B01000820
:100050001B0100081B0100081B0100081B01000810
:100060001B0100081B0100081B0100081B01000800
:100070001B0100081B0100081B0100081B010008F0
:100080001B0100081B0100081B0100081B010008E0
:100090001B0100081B0100081B0100081B010008D0
:1000A0001B0100081B0100081B0100081B010008C0
:1000B0001B0100081B0100081B0100081B010008B0
:1000C0001B0100081B0100081B0100081B010008A0
:1000D0001B0100081B0100081B0100081B01000890
:1000E0001B0100081B0100081B010008DFF80CD0F1
:1000F00000F068F800480047A10900080804002043
:100100000648804706480047FEE7FEE7FEE7FEE7B1
:10011000FEE7FEE7FEE7FEE7FEE7FEE7D90600089A
:10012000ED00000896230022114600F01DB820F0D3
:100130000040C10DC0F3160040F400007F2901DA31
:1001400000207047962903DCC1F19601C840704732
:100150009639884070470029A8BF7047401C490065
:1001600008BF20F00100704710B4B0FA80FC00FA1C
:100170000CF050EA010404BF10BC704749B1CCF147
:10018000200421FA04F411FA0CF118BF01212143D3
:100190000843A3EB0C01CB1D4FEA00614FEA10208E
:1001A00042BF002010BC704700EBC3501044002930
:1001B000A4BF10BC7047401C490008BF20F00100DC
:1001C00010BC7047064C074D06E0E06840F00103A4
:1001D00094E8070098471034AC42F6D3FFF78AFF43
:1001E000EC0900080C0A000800B587B001210820BE
:1001F00000F0DAF90120ADF8180000208DF81B009E
:1002000006A9214800F032F90121480200F0CCF99A
:100210004FF4004000F0BCF91C4800F045F8002005
:10022000019001208DF808008DF809008DF8140068
:100230004FF4602003900020049001A9134800F0BF
:1002400079F8052301220821104800F09BF80121CC
:100250000E4800F01DF80D4800F0F0F800BF0B4804
:1002600000F05EF80028FAD1084800F0F7F800BF67
:10027000064800F047F80028FAD10121034800F0B1
:10028000E2F807B000BD0000000801400024014072
:1002900021B1826842F00102826003E0826822F0AC
:1002A000010282607047000010B504461248844283
:1002B00008D10121401500F087F90021601500F0F8
:1002C00083F917E00D48844208D10121001500F0A0
:1002D0007BF90021201500F077F90BE008488442F3
:1002E00008D10121C80300F06FF900214FF400404C
:1002F00000F06AF910BD0000002401400028014010
:10030000003C0140014600208A6802F004020AB164
:10031000012000E0002070470146C86C80B27047A1
:10032000014600208A6802F008020AB1012000E0BC
:100330000020704730B502460020002350680F4C63
:1003400020400D790C6844EA0524204350609068F1
:100350000B4C2040D1E902542C434D7944EA45042A
:1003600020439060D06A20F470000C7C641EE4B2DC
:10037000234340EA0350D06230BD0000FFFEF0FF8F
:10038000FDF7F1FFF0B504460D4600200021092DD0
:1003900011DDE068A5F10A0606EB4607072606FA16
:1003A00007F18843A5F10A0606EB460603FA06F1B3
:1003B0000843E0600CE0206905EB4507072606FAD4
:1003C00007F1884305EB450603FA06F1084320616F
:1003D000072A0FDA606B561E06EB86071F2606FA01
:1003E00007F18843561E06EB860605FA06F1084318
:1003F000606322E00D2A0FDA206BD61F06EB86071A
:100400001F2606FA07F18843D61F06EB860605FA73
:1004100006F10843206310E0E06AA2F10D0606EB46
:1004200086071F2606FA07F18843A2F10D0606EBA0
:10043000860605FA06F10843E062F0BD816841F0E6
:1004400008018160704721B1826842F4A002826095
:1004500003E0826822F4A00282607047816841F064
:1004600004018160704700BFFEE770472DE9F0414D
:10047000024600250026002000230024002791F8D2
:1004800003C00CF00F0591F803C00CF0100CBCF188
:10049000000F03D091F802C04CEA050591F800C0A6
:1004A000BCF1000F31D0146800202BE04FF0010C9C
:1004B0000CFA00F3B1F800C00CEA03069E4220D10A
:1004C00083004FF00F0C0CFA03F7BC4305FA03FC52
:1004D0004CEA040491F803C0BCF1280F06D14FF098
:1004E000010C0CFA00FCC2F814C00AE091F803C039
:1004F000BCF1480F05D14FF0010C0CFA00FCC2F81A
:1005000010C0401C0828D1D31460B1F800C0BCF161
:10051000FF0F34DD546800202EE000F1080C4FF08E
:10052000010808FA0CF3B1F800C00CEA03069E4279
:1005300021D183004FF00F0C0CFA03F7BC4305FAEE
:1005400003FC4CEA040491F803C0BCF1280F05D168
:1005500000F1080C08FA0CF8C2F8148091F803C0F6
:10056000BCF1480F07D100F1080C4FF0010808FA60
:100570000CF8C2F81080401C0828CED35460BDE8A7
:10058000F08100BFFEE700BFFEE770477047000044
:1005900001460020034A506820F440400843506060
:1005A000704700000010024029B1064A92690243D8
:1005B000044B9A6104E0034A92698243014B9A61B9
:1005C000704700000010024029B1064AD268024379
:1005D000044BDA6004E0034AD2688243014BDA60DC
:1005E0007047000000100240704710B500F002F89C
:1005F00010BD00000CB50020019000903348006849
:1006000040F480303149086000BF3048006800F491
:10061000003000900198401C0190009818B9019892
:10062000B0F5A06FF1D12948006800F4003010B196
:100630000120009001E0002000900098012843D1A3
:100640002348006840F0100021490860084600680F
:1006500020F0030008600846006840F002000860CF
:100660001A4840681949486008464068486008468A
:10067000406840F4806048600846406820F47C1080
:1006800048600846406840F4E81048600846006842
:1006900040F08070086000BF0C48006800F00070F7
:1006A0000028F9D00948406820F003000749486055
:1006B0000846406840F00200486000BF03484068B8
:1006C00000F00C000828F9D10CBD00000010024019
:1006D000002002407047000010B51348006840F049
:1006E00001001149086008464068104908400E4959
:1006F0004860084600680E4908400B4908600846F3
:10070000006820F4802008600846406820F4FE005D
:1007100048604FF41F008860FFF767FF4FF00060EC
:100720000449086010BD0000001002400000FFF8FE
:10073000FFFFF6FE08ED00E021B1028842F08002E2
:10074000028004E002884FF67F731A4002807047EF
:1007500021B1028842F00102028004E002884FF6D3
:10076000FE731A400280704731B1B0F8442042F461
:100770000042A0F8442005E0B0F84420C2F30E0285
:10078000A0F844207047000000B589B00121052081
:10079000FFF70AFF0121C802FFF706FF4FF4807040
:1007A000ADF8200018208DF8230003208DF82200DA
:1007B00008A91B48FFF75AFE40F26710ADF8140075
:1007C00040F2E730ADF818000020ADF81A00ADF89F
:1007D000160005A9134800F07FF86020ADF804006A
:1007E0000020ADF80C00C820ADF80A000120ADF8DB
:1007F000060001A90B4800F017F80821094800F08D
:100800005FF801210748FFF797FF01210548FFF72F
:100810009FFF01210348FFF7A7FF09B000BD0000BB
:1008200000080140002C014070B500240022002384
:10083000058C4FF6FE7635400584028C8388048B48
:100840004FF68F752C40B51E2C400D882C43751E1D
:100850002A400D892A434D882A43144DA8420BD0C3
:10086000134DA84208D0134DA84205D0124DA842FE
:1008700002D0124DA84213D14FF6F7752A404D8988
:100880002A434FF6FB752A408D882A434FF6FF65B1
:100890002B404FF6FF552B408D892B43CD892B43A1
:1008A00083800483CD888586028470BD002C01403E
:1008B0000034014000400140004401400048014034
:1008C0000A460021018B4FF6F7731940114301834B
:1008D0007047818670470000002202881D4B9842B5
:1008E0000ED01D4B98420BD0B0F1804F08D01B4B5F
:1008F000984205D01A4B984202D01A4B984204D124
:100900004FF68F731A404B881A43174B984207D003
:10091000164B984204D04FF6FF431A40CB881A4337
:1009200002808B8883850B8803850A4B98420BD005
:10093000094B984208D00E4B984205D00D4B984277
:1009400002D00D4B984201D10B7A0386012383829A
:1009500070470000002C01400034014000040040BA
:1009600000080040000C004000100040001400404F
:1009700000400140004401400048014000BFFEE744
:1009800002E008C8121F08C1002AFAD17047704758
:10099000002001E001C1121F002AFBD170470000B6
:1009A000FFF7F2FEFFF720FC19E00D48FFF7B4FC5B
:1009B0000C4908600968080BFFF7B4FB0446FFF711
:1009C000B6FB0849086008460068322148430549DB
:1009D00008600846006881B20348FFF77AFFE4E741
:1009E0000024014000000020002C01400C0A0008F7
:1009F000000000200400000080090008100A000820
:100A0000040000200404000090090008C800000051
:04000005080000ED02
:00000001FF
