:020000040800F2
:10000000D004002001010008AD02000879020008B8
:10001000A9020008490100080705000800000000C7
:10002000000000000000000000000000D1020008F5
:100030004D01000800000000AF020008BD030008E9
:100040001B0100081B0100081B0100081B01000820
:100050001B0100081B0100081B0100081B01000810
:100060001B0100081B0100081B0100081B01000800
:100070001B0100081B0100081B0100081B010008F0
:100080001B0100081B0100081B0100081B010008E0
:100090001B0100081B0100081B0100081B010008D0
:1000A0001B0100081B0100081B0100081B010008C0
:1000B0001B0100081B0100081B0100081B010008B0
:1000C0001B0100081B0100081B0100081B010008A0
:1000D0001B010008210400081B0100081B01000887
:1000E0001B0100081B0100081B010008DFF80CD0F1
:1000F00000F018F80048004729050008D004002047
:100100000648804706480047FEE7FEE7FEE7FEE7B1
:10011000FEE7FEE7FEE7FEE7FEE7FEE7C1030008B5
:10012000ED000008064C074D06E0E06840F00103D2
:1001300094E8070098471034AC42F6D3FFF7DAFF93
:1001400090050008B005000800BFFEE770470021D9
:1001500000E0491C8142FCD370472DE9F041024682
:1001600000250026002000230024002791F803C06A
:100170000CF00F0591F803C00CF0100CBCF1000F4F
:1001800003D091F802C04CEA050591F800C0BCF11B
:10019000000F31D0146800202BE04FF0010C0CFA56
:1001A00000F3B1F800C00CEA03069E4220D18300A0
:1001B0004FF00F0C0CFA03F7BC4305FA03FC4CEAB2
:1001C000040491F803C0BCF1280F06D14FF0010CD4
:1001D0000CFA00FCC2F814C00AE091F803C0BCF1AC
:1001E000480F05D14FF0010C0CFA00FCC2F810C00A
:1001F000401C0828D1D31460B1F800C0BCF1FF0F37
:1002000034DD546800202EE000F1080C4FF00108A6
:1002100008FA0CF3B1F800C00CEA03069E4221D1A3
:1002200083004FF00F0C0CFA03F7BC4305FA03FCF4
:100230004CEA040491F803C0BCF1280F05D100F189
:10024000080C08FA0CF8C2F8148091F803C0BCF14D
:10025000480F07D100F1080C4FF0010808FA0CF81C
:10026000C2F81080401C0828CED35460BDE8F0814D
:10027000416170470161704700BFFEE708B5012189
:10028000042000F015F83020ADF8000010208DF8A3
:10029000030002208DF8020069460248FFF75DFF67
:1002A00008BD00000008014000BFFEE7704770472E
:1002B00029B1064A92690243044B9A6104E0034A59
:1002C00092698243014B9A6170470000001002401E
:1002D000704710B500F002F810BD00000CB500200A
:1002E000019000903348006840F480303149086044
:1002F00000BF3048006800F4003000900198401CB6
:100300000190009818B90198B0F5A06FF1D1294873
:10031000006800F4003010B10120009001E00020DE
:1003200000900098012843D12348006840F0100055
:10033000214908600846006820F00300086008466C
:10034000006840F0020008601A4840681949486097
:100350000846406848600846406840F4806048604D
:100360000846406820F47C1048600846406840F425
:10037000E81048600846006840F08070086000BFE0
:100380000C48006800F000700028F9D00948406867
:1003900020F00300074948600846406840F002002A
:1003A000486000BF0348406800F00C000828F9D1FD
:1003B0000CBD000000100240002002407047000009
:1003C00010B51348006840F0010011490860084664
:1003D0004068104908400E494860084600680E49C8
:1003E00008400B4908600846006820F48020086037
:1003F0000846406820F4FE0048604FF41F00886003
:10040000FFF767FF4FF000600449086010BD00006F
:10041000001002400000FFF8FFFFF6FE08ED00E0CC
:1004200010B540F225511D4800F03EF810B31B48AE
:1004300000F064F8C4B21A48008800F40040C8B95B
:100440001748008800F4804060B10A2C03D00020D7
:100450001349088020E01248008840F40040104909
:10046000088019E00D2C06D10D48008840F480402A
:100470000B49088010E00A480088C0F30D000949C4
:100480000C5407480088401C05490880084600882D
:10049000C72801DD0020088010BD000000380140A1
:1004A000040000200800002070B50246002400234C
:1004B0000025002040F66A16B14200D100BFC1F30A
:1004C000421501F01F03012606FA03F3012D02D1A4
:1004D0009689334006E0022D02D1168A334001E0AE
:1004E000968A33400C12012606FA04F4168834402A
:1004F00013B10CB1012000E0002070BD01468888D6
:10050000C0F30800704700BFFEE702E008C8121FF2
:1005100008C1002AFAD170477047002001E001C1EC
:10052000121F002AFBD17047FFF7A8FE2BE0202105
:100530001548FFF79DFE10211348FFF79BFE134857
:10054000FFF705FE10211048FFF794FE20210E480A
:10055000FFF790FE0D48FFF7FAFD10210A48FFF75C
:1005600087FE20210848FFF785FE0848FFF7EFFDCA
:1005700010210548FFF77EFE20210348FFF77AFE91
:100580000248FFF7E4FDD2E70008014040787D0112
:10059000B005000800000020080000000A0500085F
:1005A000B805000808000020C80400001A0500086B
:0805B000000000000000000043
:04000005080000ED02
:00000001FF
