:020000040800F2
:100000002804002001010008CD0B00087508000835
:10001000C90B0008F90600080D1A000800000000CE
:100020000000000000000000000000009111000826
:10003000FD06000800000000510E00087D120008B7
:100040001B0100081B0100081B0100081B01000820
:100050001B0100081B0100081B0100081B01000810
:100060001B0100081B0100081B0100081B01000800
:100070001B0100081B0100081B0100081B010008F0
:100080001B0100081B0100081B0100081B010008E0
:100090001B0100081B0100081B0100081B010008D0
:1000A0001B0100081B0100081B0100081B010008C0
:1000B0001B010008C11600081B0100081B010008F5
:1000C0001B0100081B0100081B0100081B010008A0
:1000D0001B0100081B0100081B0100081B01000890
:1000E0001B0100081B0100081B010008DFF80CD0F1
:1000F00000F07EFA00480047511B00082804002049
:100100000648804706480047FEE7FEE7FEE7FEE7B1
:10011000FEE7FEE7FEE7FEE7FEE7FEE781120008E6
:10012000ED00000840EA01039B0703D009E008C97D
:10013000121F08C0042AFAD203E011F8013B00F8AC
:10014000013B521EF9D270470EB5C10F80EAE07034
:100150000844CA07002140F233438DE80E000A46E6
:100160000B4600F040F803B000BD70B5C1F30A5271
:1001700001F000450024C1F3130140F2FF3341F4C4
:1001800080119A4201DA002070BD40F233439A4256
:10019000A2F2334203DC524200F006F800E0904045
:1001A0002C43F1D0404270BD202A04DB203A21FAD2
:1001B00002F00021704721FA02F3D040C2F1200280
:1001C000914008431946704710B5141E73F100049E
:1001D00008DA401C41F1000192185B411A4301D139
:1001E00020F0010010BD2DE9F04D92469B4611B163
:1001F000B1FA81F202E0B0FA80F22032904600F0CB
:1002000009FA04460F4640EA0A0041EA0B01534648
:100210005A46084313D0114653EA010019D0C8F1D9
:1002200040025046FFF7C0FF05460E46504659466D
:10023000424600F0EFF9084305D0012004E02046D3
:100240003946BDE8F08D0020054346EAE0762C43B0
:1002500037430A986305E40AA0EB08000022FD0A70
:1002600044EA47540A3002D500200146E9E7010577
:1002700010196941DDE9084500196941BDE8F04DF3
:10028000A2E72DE9FE4F804681EA0300C00F0C462D
:10029000009021F0004123F00045B8EB0200A94195
:1002A00005D24046214690461C460B46024623F0A6
:1002B0000040104347D0270DC7F30A00C3F30A518B
:1002C0000290401A019040286BDAC3F3130040F407
:1002D000801B0098924620B10023D2EB030A63EB07
:1002E0000B0B01985946C0F14002504600F092F9BC
:1002F00006460D4650465946019A00F09AF910EB11
:1003000008006141002487EA115284EAE7731A4326
:1003100040D0009A62B3019A012A4FEA075215DCD5
:10032000001B61EB02014FF0004202EA0752CDE9E7
:100330000042001C41F5801132462B46FFF753FF67
:1003400003B0BDE8F08F40462146F9E7001B61EBA2
:100350000201001C41F5801300185B412018A2F532
:10036000001747EB030140EAD570B6196D4111E063
:100370006D084FEA360645EAC0754FEA0752001B82
:1003800061EB0201001C41F5801149084FEA300081
:100390000019514132462B4603B0BDE8F04FFFF73C
:1003A00013BF0098012240000023D0EB020263EB50
:1003B000E073009821464FEAE074B8EB000061EB6F
:1003C0000401E9E783F000435BE781F0004158E76F
:1003D0002DE9FE4F81EA030404F0004421F00041BE
:1003E00000944FF0000B23F0004350EA01045ED06C
:1003F00052EA03045BD0C3F30A54C1F30A552C44F8
:10040000A4F2F3340194A0FB0254C1F3130141F4AC
:100410008011C3F3130343F4801301FB024400FB78
:10042000034E840A970A44EA815447EA8357A4FB9F
:10043000076802958D0A05FB07854FEA932C04FB9C
:100440000C542705029D4FEA065847EA1637B5EBCC
:1004500008056EEB070C870E920E47EA811742EAF9
:100460008312A7FB0201B6EB0B0164EB00042B0D1A
:1004700043EA0C335E1844EB1C50DA465146E7FB66
:100480000201C5F313044FEA0B3343EA14534FEA56
:100490000432019C43EA0603A4F10C040294009C7C
:1004A000CDE900B4FFF79FFE03B0BDE8F08F002058
:1004B0000146F9E72DE9F04D81EA030404F0004B11
:1004C00021F0004514464FF0000A23F0004150EAA5
:1004D000050220D054EA01021DD0C5F30A57024696
:1004E000C5F31303C1F31300C1F30A5640F480159A
:1004F00043F48013A7EB0608101BD64608F2FD381C
:1005000073EB050002D308F1010801E092185B418A
:10051000B8F1000F03DA00200146BDE8F08D00209D
:100520004FF48011064684460EE0171B73EB050757
:1005300005D3121B63EB050306434CEA010C490883
:100540004FEA300092185B4150EA0107EDD152EAC0
:10055000030012D082EA040083EA0501084305D0B3
:10056000101BAB4106D20122002306E000224FF00F
:10057000004302E06FF0010253101AEB06004CEB4F
:10058000085110EB0A0041EB0B01BDE8F04DFFF7FD
:100590001BBE70B521F0004303430CD0C1F30A55D4
:1005A0000024D5EB040564EB0403D617AD1AB34160
:1005B00002DB0020014670BD201841EB025170BDE6
:1005C00030B5041E71F1000404DB4FF000444042DA
:1005D00064EB0101141E73F1000405DB1C464FF0AF
:1005E0000043524263EB0403994208BF904230BD7E
:1005F000064C074D06E0E06840F0010394E8070070
:1006000098471034AC42F6D3FFF774FDF82C00087D
:10061000182D0008202A04DB203A00FA02F10020FD
:1006200070479140C2F1200320FA03F31943904030
:100630007047202A06DBCB17203A41FA02F043EA42
:10064000E07306E041FA02F3D040C2F1200291408B
:100650000843194670472DE9F04D00231A461B1A2E
:100660008A4103DB00200146BDE8F08DC1F30A5248
:10067000C1F3130141F480154FF0000BD10702D1F3
:1006800000186D41521E0027044640F2FF11384603
:1006900001EB620A3E468046024600204FF480117C
:1006A000FFF782FDC2197141BB1846EB0100B4EBA4
:1006B000030C75EB000C04D3E41A65EB0005174638
:1006C0000E46241908F101006D4180463428E3DD0F
:1006D000F91946EB0600091BA84103D24FF0FF327F
:1006E000134601E0002213461BEB070046EB0A51BC
:1006F000BDE8F04DFFF768BD00BFFEE770470000A2
:100700000549096821F01001034A11601146096882
:1007100001431160704700000020024001460020A4
:10072000034A106800F0380008431060704700006A
:100730000020024010B50121084600F0ABFB00216B
:10074000012000F0A7FB10BD2DE9F0410246002575
:100750000026002000230024002791F803C00CF09D
:100760000F0591F803C00CF0100CBCF1000F03D082
:1007700091F802C04CEA050591F800C0BCF1000FE9
:1007800031D0146800202BE04FF0010C0CFA00F37C
:10079000B1F800C00CEA03069E4220D183004FF05E
:1007A0000F0C0CFA03F7BC4305FA03FC4CEA0404F3
:1007B00091F803C0BCF1280F06D14FF0010C0CFAE0
:1007C00000FCC2F814C00AE091F803C0BCF1480F65
:1007D00005D14FF0010C0CFA00FCC2F810C0401C0F
:1007E0000828D1D31460B1F800C0BCF1FF0F34DD8C
:1007F000546800202EE000F1080C4FF0010808FAC0
:100800000CF3B1F800C00CEA03069E4221D183002C
:100810004FF00F0C0CFA03F7BC4305FA03FC4CEA4B
:10082000040491F803C0BCF1280F05D100F1080CB5
:1008300008FA0CF8C2F8148091F803C0BCF1480F14
:1008400007D100F1080C4FF0010808FA0CF8C2F8C3
:100850001080401C0828CED35460BDE8F0810246C9
:10086000002093680B400BB1012000E0002070478E
:100870004161704700BFFEE770B5024600240025C5
:1008800000230020958A138B1B0445EA030626F0FB
:100890007F4404EA01068E4201D1012000E00020DD
:1008A00070BD21B1028842F00102028004E002889A
:1008B0004FF6FE731A400280704700001FB500F02B
:1008C00025F80121480500F0C5FA0020ADF8040024
:1008D0004BF6FF70ADF80600C020ADF808004FF4ED
:1008E0008060ADF80A000001ADF80C0005480090EA
:1008F0006946054800F03CF801210348FFF7D1FFA5
:100900001FBD0000400D03000054004008B5012148
:10091000082000F0AFFA0121480500F09BFA1C20E6
:100920008DF80300C020ADF8000003208DF8020010
:1009300069460248FFF708FF08BD0000000C0140AF
:1009400021B1028842F48072028004E002884FF6EE
:10095000FF631A400280704721B1028842F400729E
:10096000028004E002884FF6FF531A40028070476D
:100970002DE9F04385B004460D460026B146042714
:10098000DFF8CC80A6884FF6C0700640684600F0BD
:10099000E9FADDF808802F48B8FBF0F01FFA80F97B
:1009A00046EA0906A68020884FF6FE71084020809E
:1009B00000262949286888420CD828684000B8FBDE
:1009C000F0F087B2042F00DA04273E4309F101005A
:1009D000208427E0E8884BF6FF71884206D128681A
:1009E00000EB4000B8FBF0F087B209E0286800EBAC
:1009F000C00101EB0010B8FBF0F087B247F480476C
:100A0000C7F30B0008B947F0010747F4004006435D
:100A10004FF4967009FB00F04FF47A7190FBF1F0FF
:100A2000401C2084A683208840F001002080268876
:100A30004FF6F5300640A8886989084306432680AA
:100A4000A88929890843208105B0BDE8F08300000A
:100A500000127A0040420F00A08601002DE9F0410B
:100A600005460F4614461E4601211D48FFF768FF44
:100A700000BF1C491A48FFF7FFFE0028F9D00022EA
:100A80002946174800F070F800BF17491448FFF7CF
:100A9000F3FE0028F9D03946114800F06EF800BF87
:100AA0001149891C0E48FFF7E7FE0028F8D00CE03A
:100AB00021780B4800F061F8641C00BF0A49891CCA
:100AC0000748FFF7D9FE0028F8D03000A6F1010151
:100AD0008EB2EDD101210248FFF73EFFBDE8F08163
:100AE00000540040010003008200070070B5044676
:100AF0000E46154601211948FFF722FF00BF18498D
:100B00001648FFF7B9FE0028F9D000222146134805
:100B100000F02AF800BF13491048FFF7ADFE002887
:100B2000F9D031460D4800F028F800BF0D49891C66
:100B30000A48FFF7A1FE0028F8D02946074800F030
:100B40001CF800BF0749891C0448FFF795FE0028E0
:100B5000F8D001210148FFF7FFFE70BD00540040AE
:100B6000010003008200070012B141F0010102E020
:100B70004FF6FE73194001827047018270470000F2
:100B800008B50121042000F075F948208DF8030014
:100B90002020ADF8000069460148FFF7D5FD08BDEB
:100BA0000008014008B50121042000F063F9482045
:100BB0008DF803004020ADF8000069460148FFF7BA
:100BC000C3FD08BD0008014000BFFEE770470000FC
:100BD00070B5002100230F22C47804B3154C24689B
:100BE00004F4E064C4F5E064210AC1F10403CA40DE
:100BF000447804FA03F184781440214309010E4C2F
:100C00000678A155047804F01F050124AC4005784E
:100C10006D11AD0005F1E025C5F8004109E004784B
:100C200004F01F050124AC40044D0678761145F808
:100C3000264070BD0CED00E000E400E080E100E043
:100C400002490143024A1160704700000000FA05A2
:100C50000CED00E02DE9F04705460C4616464FF036
:100C6000000AA01CC4B2D1463AE005F1B000C2B2FD
:100C700000217820FFF73AFF2746E01704EB1070B9
:100C800000111030C2B200217820FFF72FFFE017CB
:100C900004EB10700011A4EB0010C2B20021782008
:100CA000FFF724FF4FF0000811E00AEB0610A0F553
:100CB00000700E490A5C40217820FFF717FF0AF107
:100CC000010000F0FF0A08F1010000F0FF08B8F190
:100CD000080FEADB681CC5B209F1010000F0FF094A
:100CE000B9F1020FC1DBBDE8F087000064260008FF
:100CF00070B506460C46002508E014F8012BE806FE
:100D0000010E3046FFF7A6FF681CC5B22078002808
:100D1000F3D170BD70B5B0241BE0224600217820CD
:100D2000FFF7E4FE102200217820FFF7DFFE00220B
:100D300011467820FFF7DAFE002506E00022402168
:100D40007820FFF7D3FE681CC5B2842DF6DB601C4B
:100D5000C4B2B82CE1DB70BD10B50446812200217D
:100D60007820FFF7C3FE224600217820FFF7BEFE61
:100D700010BD000008B505A00068009003236A4676
:100D800000217820FFF76AFE08BD0000AE8D10003C
:100D900000B587B01C2206A16846FFF7C3F91C23E3
:100DA0006A4600217820FFF759FE07B000BD000019
:100DB000AE0010D580A83FD300B0408D14A1C8DA92
:100DC0001281FFD9F1DB302000A4A6AF10B5FFF7E8
:100DD000D1FFFFF79FFFFFF7DBFF10BD10B5FFF757
:100DE000E1FEFFF7CDFE22E000F0E6FB20211648F1
:100DF000FFF735FD40B915480068401C13490860ED
:100E00000846006800F08CFB40210F48FFF727FDE3
:100E100040B90E480068401E0C490860084600684A
:100E200000F07EFBFFF7D2FF6420FFF795FF202143
:100E30000548FFF714FD0028D6D040210248FFF7EF
:100E40000EFD0028D0D010BD000801401400002085
:100E50007047000029B1064AD2690243044BDA61A7
:100E600004E0034AD2698243014BDA617047000013
:100E70000010024029B1064A92690243044B9A616C
:100E800004E0034A92698243014B9A617047000073
:100E90000010024029B1064AD2680243044BDA60CE
:100EA00004E0034AD2688243014BDA6070470000D5
:100EB0000010024010B500F02FF84FF4803000F021
:100EC000EDF800F049F90446012C24D14FF4E0116B
:100ED000000400F027F9002000F0D4F8A00200F090
:100EE00003F9002000F00CF90220FFF717FC102096
:100EF000FFF706FC012000F00FF900BF392000F0D9
:100F00009BF80028FAD0022000F01AF900BF00F088
:100F1000B1F80828FBD110BD0F48006840F001006F
:100F20000D490860084640680C4908400A49486075
:100F3000084600680A4908400749086008460068F2
:100F400020F4802008600846406820F4FE004860D5
:100F50004FF41F0088607047001002400000FFF847
:100F6000FFFFF6FE30B500210022002400232D4DA6
:100F70006D6805F00C0121B1042905D0082923D1A1
:100F800005E0294D056022E0274D05601FE0254D55
:100F90006D6805F47012234D6D6805F480340225E8
:100FA00005EB92421CB9214D554305600BE01D4DE8
:100FB0006D6805F400351DB11C4D5543056002E018
:100FC000194D5543056002E0174D056000BF00BF95
:100FD000144D6D6805F0F0010909154D6B5C05684D
:100FE000DD4045600F4D6D6805F4E061090A104D64
:100FF0006B5C4568DD4085600A4D6D6805F46051A5
:10100000C90A0B4D6B5C4568DD40C560054D6D68D8
:1010100005F44041890B074D6B5CC568B5FBF3F5E2
:10102000056130BD0010024000127A0000093D0049
:10103000000000201000002010B50146002200230F
:1010400000204A11012A02D1094C236806E0022A35
:1010500002D1074C236A01E0054C636A01F01F02CC
:10106000012494401C400CB1012000E0002010BD80
:10107000001002400248406800F00C007047000079
:101080000010024001460020034A506820F0F000A2
:101090000843506070470000001002401149096881
:1010A00021F480310F4A11601146096821F4802132
:1010B0001160B0F5803F03D0B0F5802F0ED106E06F
:1010C0000849096841F48031064A116007E0054982
:1010D000096841F4A021034A116000E000BF00BF8D
:1010E000704700000010024001460020034A50688B
:1010F00020F4E06008435060704700000010024098
:1011000001460020034A506820F4605040EAC100C4
:1011100050607047001002400149086670470000A7
:101120000000424202460020044B586820F47C1024
:1011300042EA01031843014B586070470010024017
:1011400001460020034A506820F003000843506025
:10115000704700000010024038B5002000900024C5
:10116000002500BF3120FFF767FF05460098401CAF
:1011700000900098B0F5A06F01D0002DF2D0312082
:10118000FFF75AFF08B1012400E00024204638BDD3
:10119000704710B500F002F810BD00000CB500203B
:1011A000019000903348006840F480303149086075
:1011B00000BF3048006800F4003000900198401CE7
:1011C0000190009818B90198B0F5A06FF1D12948A5
:1011D000006800F4003010B10120009001E0002010
:1011E00000900098012843D12348006840F0100087
:1011F000214908600846006820F00300086008469E
:10120000006840F0020008601A48406819494860C8
:101210000846406848600846406840F4806048607E
:101220000846406820F47C1048600846406840F456
:10123000E81048600846006840F08070086000BF11
:101240000C48006800F000700028F9D00948406898
:1012500020F00300074948600846406840F002005B
:10126000486000BF0348406800F00C000828F9D12E
:101270000CBD00000010024000200240704700003A
:1012800010B51348006840F0010011490860084695
:101290004068104908400E494860084600680E49F9
:1012A00008400B4908600846006820F48020086068
:1012B0000846406820F4FE0048604FF41F00886034
:1012C000FFF767FF4FF000600449086010BD0000A1
:1012D000001002400000FFF8FFFFF6FE08ED00E0FE
:1012E000F0B50C46154600220021068C4FF6FE771D
:1012F0003E400684028B018C4FF60C7632407E1CF9
:1013000006EA03162E433243104EB0420ED0104E62
:10131000B0420BD0B0F1804F08D00E4EB04205D095
:101320000D4EB04202D00D4EB04206D14FF6FD76C2
:10133000314044F00106314305E04FF6F576314087
:1013400044F00106314302830184F0BD002C0140CA
:10135000003401400004004000080040000C004040
:10136000F0B50C461546002200210026078C4FF6EA
:10137000EF7C07EA0C070784028B018C4FF6FF779E
:1013800007EA041640F6FF473A404FF6FF7707EAB0
:1013900003373A434FF6FF7707EA05273A43114FE1
:1013A000B8420ED0104FB8420BD0B0F1804F08D0E9
:1013B0000E4FB84205D00E4FB84202D00D4FB84282
:1013C00006D14FF6DF77394046F01007394305E084
:1013D0004FF65F77394044F01007394302830184A8
:1013E000F0BD0000002C014000340140000400402A
:1013F00000080040000C0040F0B50C4615460022E5
:1014000000210026078C4FF6FF6C07EA0C070784C3
:10141000828B018C4FF6FF7707EA04264FF60C7794
:101420003A404FF6FF7707EA03172F433A43114F2D
:10143000B8420ED0104FB8420BD0B0F1804F08D058
:101440000E4FB84205D00E4FB84202D00D4FB842F1
:1014500006D14FF6FF57394046F48077394305E00F
:101460004FF2FF57394044F4807739438283018437
:10147000F0BD0000002C0140003401400004004099
:1014800000080040000C0040F0B50C461546002254
:1014900000210026078C4EF6FF7C07EA0C07078424
:1014A000828B018C4FF6FF7707EA043640F6FF4740
:1014B0003A404FF6FF7707EA05273A434FF6FF77A2
:1014C00007EA03373A43114FB8420ED0104FB842E3
:1014D0000BD0B0F1804F08D00E4FB84205D00E4F60
:1014E000B84202D00D4FB84206D14DF6FF773940D1
:1014F00046F48057394305E047F6FF57394044F436
:101500008057394382830184F0BD0000002C0140E4
:10151000003401400004004000080040000C00407E
:1015200010B588B0044601210820FFF7A3FC4FF452
:101530000070ADF81C0018208DF81F0003208DF8F6
:101540001E0007A91A48FFF7FFF801210420FFF742
:1015500081FC4720ADF810003120ADF814000020C8
:10156000ADF8120004A9134800F0FEF96020ADF8B0
:1015700000000020ADF80800A0B2ADF80600012080
:10158000ADF8020069460B4800F074F908210948DB
:1015900000F0AEF90121074800F0C2F8012105482A
:1015A00000F0D0F80121034800F0D8F808B010BDD1
:1015B000000C0140000800400EB501210846FFF76D
:1015C00049FC48F69F40ADF8000040F2E730ADF826
:1015D00004000020ADF8020069464FF0804000F0A2
:1015E000C3F90121880700F0A7F80121880700F05E
:1015F000A9F800BF0121880700F0C2F80028F9D03F
:101600000EBD000030B589B005460C460121022010
:10161000FFF720FC01210420FFF72CFC01210846E4
:10162000FFF728FCFFF786F88020ADF8200028207F
:101630008DF8230008A92048FFF786F880211E486E
:10164000FFF716F9ADF81850ADF814400020ADF8CA
:101650001A00ADF8160005A9184800F085F9042015
:10166000ADF804000020ADF806000120ADF8080038
:101670000020ADF80A00ADF80C0001A90F4800F0F9
:1016800099F81D208DF8100002208DF8110000201F
:101690008DF8120001208DF8130004A8FFF798FAC6
:1016A00001220521054800F0DBF80121034800F084
:1016B00049F809B030BD00000008014000040040B6
:1016C00010B5FFF78BFB0421114800F062F8F0B170
:1016D0001048006838B900210D4800F016F90120C3
:1016E0000C4908600FE00B48006801280BD108483E
:1016F00000F043F8044600200649086006480480CC
:101700008020064908700521014800F018F810BD36
:10171000000400401C000020180000201A000020D7
:1017200021B1028842F08002028004E002884FF674
:101730007F731A4002807047CA4302827047CA43CF
:101740000282704721B1028842F00102028004E067
:1017500002884FF6FE731A400280704731B1B0F82C
:10176000442042F40042A0F8442005E0B0F84420B0
:10177000C2F30E02A0F8442070470146088F70475C
:1017800002460020138A0B400BB1012000E000202C
:10179000704730B50246002000230024158A05EA70
:1017A0000103958905EA010413B10CB1012000E0A1
:1017B000002030BD70B505460C46244885420ED049
:1017C000234885420BD0B5F1804F08D0214885428F
:1017D00005D02148854202D02048854200D100E052
:1017E00000BF208850B92389A28861882846FFF766
:1017F00077FDE188284600F08AF825E02088042853
:101800000AD12389A28861882846FFF7A9FDE188CB
:10181000284600F085F817E0208808280AD1238997
:10182000A28861882846FFF7E7FDE188284600F096
:1018300084F809E02389A28861882846FFF724FEFE
:10184000E188284600F082F870BD0000002C0140BD
:10185000003401400004004000080040000C00403B
:101860001AB183890B43838102E083898B4383818F
:101870007047000070B5002200230024058C4EF64E
:10188000FF7635400584038C8488828B48F6FF758B
:101890002A404FF6FF452A400D884FF6FF7606EAAC
:1018A00005252A434DF6FF752B400D8906EA0535BF
:1018B0002B434D8806EA05352B430B4DA84202D039
:1018C0000A4DA84208D14BF6FF752C408D894FF682
:1018D000FF7606EA85152C4384808283CD88A0F8A4
:1018E0004050038470BD0000002C014000340140D2
:1018F0000A460021818B4FF2FF7319404FF6FF73A8
:1019000003EA022319438183704781847047028B65
:101910004FF6F3731A400283028B0A430283704727
:10192000028B4FF2FF331A400283028B4FF6FF7394
:1019300003EA01231A4302837047828B4FF6F37345
:101940001A408283828B0A4382837047828B4FF2D4
:10195000FF331A408283828B4FF6FF7303EA012321
:101960001A43828370470000002202881D4B984270
:101970000ED01D4B98420BD0B0F1804F08D01B4BBE
:10198000984205D01A4B984202D01A4B984204D183
:101990004FF68F731A404B881A43174B984207D063
:1019A000164B984204D04FF6FF431A40CB881A4397
:1019B00002808B8883850B8803850A4B98420BD065
:1019C000094B984208D00E4B984205D00D4B9842D7
:1019D00002D00D4B984201D10B7A038601238382FA
:1019E00070470000002C014000340140000400401A
:1019F00000080040000C00400010004000140040AF
:101A000000400140004401400048014000BFFEE7A3
:101A1000490050EAC12018BF04204A0D18BF40F009
:101A2000010040F2FF72B2EB515F08BF40F00200CC
:101A3000012808BF052070472DE9F0414F1E00EB3B
:101A4000C7010446D1E9000115461E4637F00602DB
:101A50000DD02A463346FEF7BBFC7F1E04EBC703BE
:101A6000D3E90023FEF70DFC37F00602F1D1022F77
:101A700025D0042F13D0062F18BFBDE8F0812A46C9
:101A80003346FEF7A5FCD4E90A23FEF7FAFB2A4603
:101A90003346FEF79DFCD4E90823FEF7F2FB2A4605
:101AA0003346FEF795FCD4E90623FEF7EAFB2A4607
:101AB0003346FEF78DFCD4E90423FEF7E2FB2A4609
:101AC0003346FEF785FCD4E90223FEF7DAFB2A460B
:101AD0003346FEF77DFCD4E90023BDE8F041FEF774
:101AE000D0BB00000022134610460149FEF7E2BCBD
:101AF0000000F03FFEF7C5BB00221346104611461A
:101B0000FEF7D8BC40F2013200204FF0E041FEF772
:101B100040BD0000024A00201107FEF73ABD000058
:101B200001FDFFFF02E008C8121F08C1002AFAD118
:101B300070477047002001E001C1121F002AFBD14D
:101B40007047000001490860704700002000002035
:101B50001FB5FFF731FDFFF7ADF9FEF7AFFEFFF759
:101B600035F96420FFF7F8F831A10020FFF7C0F83D
:101B700033A10220FFF7BCF84FF44070FFF760F884
:101B800047214FF6FF70FFF73DFD50E04BE000208E
:101B90002F4908702F48008800EB800080002E49F4
:101BA00091FBF0F01FFA80F9002428E0C4F1060050
:101BB000FEF7CAFA07463A460B460020274900F0CE
:101BC0004FF80546FEF7D1FA99FBF0F080B22DF8F8
:101BD0001400C4F10600FEF7B7FA05462A460B4684
:101BE00000201E4900F03CF80746FEF7BEFA3DF81B
:101BF000141001FB10901FFA80F9601CC4B2072C6E
:101C0000D4DB00240BE03DF81400303082B2201DFC
:101C1000C006010E0420FFF71DF8601CC4B2072C9B
:101C2000F1DBFFF7C9FC0A4800788028AFD0ADE7A8
:101C30002020204443204D6F746F7220200000004C
:101C40002020202073706565643A20202000000069
:101C50001A00002018000020008793030000244091
:101C60002DE9F04D16460F4694B01C4621F0004178
:101C700023F00042002814BF4FF0010C4FF0000C7D
:101C80000CEB470CFE4B0CEB03054FEA630C654570
:101C90002BD3350018BF012505EB44051D44F94B36
:101CA0009D4222D3F84B52EA060C02D09F4205D146
:101CB00048B914B000201946BDE8F08D002808BFCF
:101CC0004FF0000C01D04FF0010C0CEB470313F563
:101CD000001F0AD8002E14BF4FF0010C4FF0000C6B
:101CE0000CEB440313F5001F07D914B0324623460A
:101CF0003946BDE8F04DFFF7FDBEDFF890834FF0A9
:101D0000000A002FB8BF424523DAE14B9A42A8BF30
:101D10004FF0020A1DDADC4B93421ADCDD4B03EB79
:101D20002253142B08DDC3F1340C26FA0CF303FA0A
:101D30000CFCB4450DD108E05EB9C3F1140C22FAD5
:101D40000CF303FA0CFC944503D103F00103C3F137
:101D5000020A51EA00031BD1002C19DA002F18BF28
:101D6000BAF1020F02D0BAF1010F07D00220FFF73B
:101D7000E9FE14B0BDE8F04DFFF7B4BE0220FFF756
:101D8000E1FEFFF7AFFE14B081F00041BDE8F08D39
:101D9000330070D1424525D107F1804212F58012FF
:101DA00001BF00280020B84914B008BFBDE8F08D7D
:101DB000B548884207DC002CA1BF1846214614B064
:101DC000BDE8F08D07E0002CBFBF184684F000414D
:101DD00014B0BDE8F08DB0497944D1E9000114B0E8
:101DE000BDE8F08DDFF8A0C262452AD1002C24DACC
:101DF00039B1414517D1002804BF002002461CD14B
:101E000006E040B10220FFF79DFEFFF77BFE0A4689
:101E1000394600F0D7BA9D4A394614B0002062F323
:101E20001E01BDE8F08D08DA14B03B46BDE8F04D68
:101E3000024600206146FEF73DBB14B03946BDE8BE
:101E4000F08D414517DAB4F1804F0CD0A4F1005366
:101E5000B3F1FF530FD13B1E0DDB14B01946BDE8A3
:101E6000F04D00F0D9BB3B4614B00246BDE8F04D42
:101E70001946FEF7ADBA050027F000433AD1E1B1AB
:101E8000414537D1002F06DD002CA1BF002041467F
:101E900014B0BDE8F08D002F01DD002C1FDB002FFA
:101EA00016DA002C14DBBAF1010F4FF0000014BF5A
:101EB00076497A4914B0BDE8F08DBAF1020F18BF27
:101EC000002F0CD0BAF1010F09D1002F07DA0BE077
:101ED000002FB8BF002C0DDABAF1010F04D000209A
:101EE00014B00146BDE8F08D14B000204FF0004161
:101EF000BDE8F08D4FF0010808EBE77CCDF814C089
:101F00005CEA0A0C0DD0DFF898C162457EDDDFF88F
:101F100094C1654B624512DD8B420ADB002C18DB55
:101F200023E00120FFF70EFE14B0BDE8F04DFFF7EF
:101F3000E3BD554A8A4202DC002C0ADC15E09942D6
:101F400002DA002C11DA04E04F4B994219DD002C23
:101F50000BDD0220FFF7F6FDFFF7D4FD4B4A14B06E
:101F600061F31E021146BDE8F08D0220FFF7EAFD85
:101F7000FFF7D0FD444A14B061F31E021146BDE8DC
:101F8000F08D00223946FEF71DFA07460D466FF028
:101F90000102FEF7FEFA4FF05532444BFEF715FAF8
:101FA0003A462B46FEF714FA0022414BFEF70DFA93
:101FB00080468B463A462B4610461946FEF708FAED
:101FC00042465B46FEF704FA88460E904FF0C04248
:101FD000384B38462946FEF7FBF983460091364ACE
:101FE000344B41460E98FEF7F3F980460191334A8F
:101FF000334B38462946FEF7EBF94246019BFEF784
:10200000E1F90D4602460B460C9000E011E05846FF
:102010000099FEF736F9002788465A463846009B55
:10202000FEF7D0F92B460C9AFEF7CFF9024600F0E6
:1020300079B90020B1F5801F07DA35222846194604
:10204000FEF7A7FA05466FF0340000EB2150A0F22E
:10205000FF300190C1F3130040F07F6141F0405127
:10206000029118498842D8BF4FF0000B35DD164960
:102070008142C8BF4FF0010B2FDC4FF0000B25E071
:10208000FFFF1F00FFFF0F000000F03F0000F07F88
:102090000000404301FCFFFF140F00000000F0FFB0
:1020A0000000E0410000F043FFFFEF3F5555D53FF2
:1020B0000000E03F4715F73FFE822B6544DF5DF8E7
:1020C0000BAE543E8E9803007AB60B000198401C6C
:1020D00001900298A0F580100290FF480299784480
:1020E00000EBCB000991D0E9002328460B93129214
:1020F000FEF768F900910A9028460B9B129A0999FD
:10210000FEF7BFF802460B460020F449FEF7D2F96D
:10211000CDE90C010B46024600990A98FEF758F9E2
:102120000690EF488846002778440299006810908E
:102130004FF0005040EA610000EB8B4000F50021B9
:1021400002910B9B129A1098FEF73CF92A46099BC4
:10215000FEF73BF93A464346FEF73AF908911290EA
:1021600038464146029B109AFEF732F9009B0A9AC4
:10217000FEF72BF9089B129AFEF724F9DDE90C23F0
:10218000FEF726F90B91069A12904346104619461F
:10219000FEF71EF905460246D2480B460A91062173
:1021A0007844FFF749FC0A9B2A46089102901046A2
:1021B0001946FEF70DF9089B029AFEF709F9054644
:1021C0000991434638461946069AFEF75AF80B9B82
:1021D000129AFEF7FDF82A46099BFEF752F8CDE960
:1021E00008013A46434610461946FEF7F1F80A91AF
:1021F0000022BD4B0090FEF744F8DDE90823FEF70E
:1022000040F80D463A46B84B3846FEF7DBF80A9BD5
:10221000009AFEF7D7F8DDE90823FEF7D6F8CDE9F6
:1022200008013A462B4610464146FEF7D1F8009188
:102230000A90DDE908014346069AFEF7C9F80690C0
:1022400088462B463A460B991298FEF7C1F843464A
:10225000069AFEF716F880460B4602460D91009945
:102260000A98FEF70EF800200F460546009B0A9AD2
:10227000FEF7A8F842460D9BFEF7A7F888460E9099
:102280004FF06042994B28463946FEF7A1F802917B
:102290000090974A954B41460E98FEF799F8804674
:1022A0000391944A944B28463946FEF791F84246EA
:1022B000039BFDF7E6FF914A7A4402EBCB03D3E997
:1022C0000023FDF7DEFF054607910198FDF73CFF6F
:1022D0000C9003912A46079B02990098FDF7D1FFC5
:1022E000874A7A4402EBCB03D3E900239346019358
:1022F000FDF7C7FF039B0C9AFDF7C3FF0027884635
:102300003846039B0C9AFEF75DF85A46019BFEF790
:1023100059F8029B009AFEF755F82A46079BFEF7EC
:1023200054F802460020069005986C4DAAF101036E
:10233000184301D1734D069000200B46049030469F
:102340002146FEF745F882468B462346304619461D
:10235000049AFEF737F83A464346FEF739F85246F4
:102360005B46FDF78EFF06468A463A4643462146BF
:102370000498FEF72DF804460F4632465346FDF703
:1023800080FF614A8B46914221DBABEB020353EAAB
:10239000000210D122463B46FEF714F88046039116
:1023A0005A4A5B4B30465146FDF76BFF4246039B52
:1023B000FEF706F927D20220FFF7C4FBFFF7A2FBC6
:1023C0000A46294614B062F31E01BDE8F08D514B58
:1023D0002BF000429A4216D34F4A0BEB020353EA0A
:1023E000000208D122463B46FDF7ECFF3246534639
:1023F000FEF7E6F807D80220FFF7A4FBFFF78AFBF9
:102400000A462946DEE72BF000404449444A01EBE6
:1024100020514FF00008824223DA481C4FF480110B
:1024200021FA00F058443F4AC0F30A517A443E4B27
:10243000A1F2FF31CB4020EA0303C0F3130040F4C4
:10244000801CC1F1140012682CFA00F8BBF1000FD7
:10245000B8BFC8F1000820463946FDF7B3FF04466F
:102460000F4622463B4630465146FDF70AFF4FF0E5
:10247000000B5A462D4B58460391FDF7A9FF0091DA
:102480000A902B4A2B4B58460399FDF7A1FF049164
:10249000029022463B4658460399FDF793FF324689
:1024A0005346FDF792FF244A244BFDF791FF049B0E
:1024B000029AFDF7E6FE07468A46009B0A9AFDF758
:1024C000E0FE04460E46009B0A9AFDF77BFF3A4663
:1024D0005346FDF77AFF33E0860B00000000F03F23
:1024E000C40B0000F40A00000000084009C7EE3FDA
:1024F000FD033ADCF5015B14E02F3EBECC09000081
:10250000920900000000F0BF00009040FE822B65A1
:102510004715973C00CC904000346F3F01FCFFFF13
:102520000000E03FC0080000FFFF0F00432EE63F21
:10253000396CA80C615C20BEEF39FAFE422EE63FF2
:102540000746224633460F9110461946FDF740FFD5
:10255000834602462E488A460B4605217844FFF7FB
:102560006BFA5A465346FDF733FF22463346FDF7D2
:102570002CFF82468B463A46204631460F9BFDF79C
:1025800027FF3A460F9BFDF77CFE0F460A9000227C
:102590004FF0804350465946FDF714FF03910090D9
:1025A00052465B4620463146FDF712FF039B009AD8
:1025B000FDF780FF3B460A9AFDF704FF22463346AB
:1025C000FDF700FF0022134BFDF7FFFE0E46044609
:1025D00001EB08510815002810DC42462046314620
:1025E000FDF7D7FFFFF714FA042808BFFFF792FAA8
:1025F000424620463146FDF7CCFF044606980B467E
:1026000014B022462946BDE8F04DFDF7E1BE0000BA
:10261000680700000000F03F2DE9F04106460F4634
:10262000FEF719F804000D4618BF0120284320F0DA
:102630000040C0F17F6000F1E040C00F0ED0301CC0
:1026400018BF0120384320F00040C0F17F6000F146
:10265000E040C00F04BF0120FFF774FA204629466E
:10266000BDE8F08100000000000000000000000054
:1026700000000000000038FCFC3800000000000DE5
:102680000D000000000E1E00001E0E0000000000E5
:102690000000000020F8F820F8F82000020F0F02D8
:1026A0000F0F0200387C444747CC98000306041CF7
:1026B0001C07030030300080C06030000C060301AE
:1026C000000C0C0080D87CE4BCD84000070F080840
:1026D000070F080000101E0E0000000000000000A0
:1026E000000000000000F0F80C04000000000307E8
:1026F0000C0800000000040CF8F000000000080CBA
:102700000703000080A0E0C0C0E0A0800002030139
:1027100001030200008080E0E080800000000003F0
:102720000300000000000000000000000000101E78
:102730000E0000008080808080808000000000000B
:102740000000000000000000000000000000000C7D
:102750000C00000000000080C06030000C06030187
:1027600000000000F8FC04C424FCF800070F09086E
:10277000080F0700001018FCFC0000000008080FFC
:102780000F080800080C84C4643C18000E0F0908E8
:10279000080C0C00080C444444FCB800040C080865
:1027A000080F0700C0E0B098FCFC800000000008A3
:1027B0000F0F08007C7C4444C4C48400040C080847
:1027C000080F0700F0F84C4444C08000070F0808C9
:1027D000080F07000C0C0484C47C3C0000000F0FA1
:1027E00000000000B8FC444444FCB800070F08088F
:1027F000080F0700387C444444FCF800000808082F
:102800000C0703000000003030000000000000064C
:102810000600000000000030300000000000080E3C
:10282000060000000080C0603018080000000103AE
:10283000060C0800404040404040400002020202B6
:10284000020202000008183060C0800000080C0678
:1028500003010000181C04C4E43C18000000000D33
:102860000D000000F0F808C8C8F8F000070F080BCA
:102870000B0B0100E0F0988C98F0E0000F0F0000C7
:10288000000F0F0004FCFC4444FCB800080F0F08C4
:10289000080F0700F0F80C04040C180003070C08DC
:1028A000080C060004FCFC040CF8F000080F0F08EC
:1028B0000C07030004FCFC44E40C1C00080F0F0888
:1028C000080C0E0004FCFC44E40C1C00080F0F086C
:1028D00000000000F0F80C84848C980003070C08BA
:1028E00008070F00FCFC404040FCFC000F0F0000FC
:1028F000000F0F00000004FCFC0400000000080FA3
:102900000F08000000000004FCFC0400070F08088A
:102910000F07000004FCFCC0F03C0C00080F0F0087
:10292000010F0E0004FCFC0400000000080F0F085B
:10293000080C0E00FCFC387038FCFC000F0F000087
:10294000000F0F00FCFC3870E0FCFC000F0F0000D3
:10295000000F0F00F0F80C040CF8F00003070C084F
:102960000C07030004FCFC44447C3800080F0F08EB
:1029700000000000F8FC040404FCF800070F080E37
:102980003C3F270004FCFC44C4FC3800080F0F0047
:10299000000F0F00183C6444C49C1800060E080881
:1029A000080F0700001C0CFCFC0C1C000000080FAA
:1029B0000F080000FCFC000000FCFC00070F0808EA
:1029C000080F0700FCFC000000FCFC000103060CE3
:1029D00006030100FCFC008000FCFC00030F0E035A
:1029E0000E0F03000C3CF0C0F03C0C000C0F030079
:1029F000030F0C00003C7CC0C07C3C000000080FB2
:102A00000F0800001C0C84C4643C1C000E0F090855
:102A1000080C0E000000FCFC0404000000000F0F76
:102A2000080800003870E0C08000000000000001CD
:102A300003070E0000000404FCFC0000000008086E
:102A40000F0F0000080C0603060C08000000000031
:102A500000000000000000000000000020202020F6
:102A600020202020000003070400000000000000D8
:102A70000000000000A0A0A0E0C00000070F0808B0
:102A8000070F080004FCFC2060C08000080F070846
:102A9000080F0700C0E0202020604000070F080852
:102AA000080C040080C06024FCFC0000070F08082C
:102AB000070F0800C0E0A0A0A0E0C000070F0808B2
:102AC000080C040040F8FC440C180000080F0F0824
:102AD00000000000C0E02020C0E02000276F484830
:102AE0007F3F000004FCFC4020E0C000080F0F0006
:102AF000000F0F00000020ECEC0000000000080FA9
:102B00000F0800000000000020ECEC0000307040D6
:102B1000407F3F0004FCFC80C0602000080F0F01D4
:102B2000030E0C00000004FCFC0000000000080F75
:102B30000F080000E0E060C060E0C0000F0F000F71
:102B4000000F0F0020E0C02020E0C000000F0F00A9
:102B5000000F0F00C0E0202020E0C000070F080891
:102B6000080F070020E0C02020E0C000407F7F4821
:102B7000080F0700C0E02020C0E02000070F084831
:102B80007F7F400020E0C0602060C000080F0F0879
:102B90000000000040E0A02020604000040C090973
:102BA0000B0E04002020F8FC202000000000070F7E
:102BB000080C0400E0E00000E0E00000070F080857
:102BC000070F080000E0E00000E0E0000003070C51
:102BD0000C070300E0E0000000E0E000070F0C0736
:102BE0000C0F07002060C080C0602000080C0703A5
:102BF000070C0800E0E0000000E0E000474F484814
:102C0000683F1F00606020A0E06020000C0E0B09F0
:102C1000080C0C00004040F8BC0404000000000751
:102C20000F080800000000BCBC0000000000000FFE
:102C30000F000000000404BCF84040000008080F2A
:102C400007000000080C040C080C04000000000041
:102C50000000000080C0603060C0800007070404EE
:102C60000407070000000000000000000000F03F23
:102C7000000000000000F83F00000000000000001D
:102C80000000004003B8E23F000000000000000028
:102C900006D0CF43EBFD4C3E033333333333E33FB6
:102CA000FFAB6FDBB66DDB3F4D268F515555D53FE2
:102CB00001411DA96074D13F65DBC9934A86CD3FB0
:102CC000EF4E454A287ECA3F3E5555555555C53F9E
:102CD00093BDBE166CC166BF2CDE25AF6A56113F90
:102CE000F16BD2C541BDBBBED0A4BE726937663E92
:102CF0000000000000000000182D00080000002067
:102D000024000000241B00083C2D000824000020A3
:102D100004040000341B000800000000010203044A
:102D20000102030406070809020406080000000067
:0C2D300000000000000000000000000097
:04000005080000ED02
:00000001FF
