:020000040800F2
:100000000804002001010008250600081D0600085C
:10001000210600086F040008AD0B00080000000076
:100020000000000000000000000000005107000870
:100030007304000800000000D50600083D08000811
:100040001B0100081B0100081B0100081B01000820
:100050001B0100081B0100081B0100081B01000810
:100060001B0100081B0100081B0100081B01000800
:100070001B0100081B0100081B0100081B010008F0
:100080001B0100081B0100081B0100081B010008E0
:100090001B0100081B0100081B0100081B010008D0
:1000A0001B0100081B0100081B0100081B010008C0
:1000B000ED0800081B0100081B0100081B010008D7
:1000C0001B0100081B0100081B0100081B010008A0
:1000D0001B0100081B0100081B0100081B01000890
:1000E0001B0100081B0100081B010008DFF80CD0F1
:1000F00000F06CF800480047D10B0008080400200D
:100100000648804706480047FEE7FEE7FEE7FEE7B1
:10011000FEE7FEE7FEE7FEE7FEE7FEE74108000830
:10012000ED000008C10F80EAE0700844CA0796237A
:10013000002100F01DB820F00040C10DC0F31600F2
:1001400040F400007F2901DA00207047962903DC83
:10015000C1F19601C8407047963988407047002920
:10016000A8BF7047401C490008BF20F0010070473D
:1001700010B4B0FA80FC00FA0CF050EA010404BF9D
:1001800010BC704749B1CCF1200421FA04F411FAF3
:100190000CF118BF012121430843A3EB0C01CB1D37
:1001A0004FEA00614FEA102042BF002010BC7047A8
:1001B00000EBC35010440029A4BF10BC7047401C82
:1001C000490008BF20F0010010BC7047064C074DE5
:1001D00006E0E06840F0010394E807009847103417
:1001E000AC42F6D3FFF786FF400C0008600C000815
:1001F00000B587B00121082000F08AFA0120ADF88F
:10020000180000208DF81B0006A9214800F032F9E3
:100210000121480200F07CFA4FF4004000F05CFA43
:100220001C4800F045F80020019001208DF80800DE
:100230008DF809008DF814004FF460200390002021
:10024000049001A9134800F079F805230122082140
:10025000104800F09BF801210E4800F01DF80D48F1
:1002600000F0F0F800BF0B4800F05EF80028FAD16B
:10027000084800F0F7F800BF064800F047F80028EB
:10028000FAD10121034800F0E2F807B000BD0000F8
:10029000000801400024014021B1826842F00102BF
:1002A000826003E0826822F00102826070470000F1
:1002B00010B504461248844208D10121401500F0CF
:1002C00037FA0021601500F033FA17E00D48844238
:1002D00008D10121001500F02BFA0021201500F0B3
:1002E00027FA0BE00848844208D10121C80300F036
:1002F0001FFA00214FF4004000F01AFA10BD000070
:100300000024014000280140003C0140014600203B
:100310008A6802F004020AB1012000E00020704760
:100320000146C86C80B27047014600208A6802F01E
:1003300008020AB1012000E00020704730B50246F3
:100340000020002350680F4C20400D790C6844EACF
:1003500005242043506090680B4C2040D1E90254A2
:100360002C434D7944EA450420439060D06A20F440
:1003700070000C7C641EE4B2234340EA0350D06258
:1003800030BD0000FFFEF0FFFDF7F1FFF0B50446C1
:100390000D4600200021092D11DDE068A5F10A06B7
:1003A00006EB4607072606FA07F18843A5F10A0679
:1003B00006EB460603FA06F10843E0600CE020690C
:1003C00005EB4507072606FA07F1884305EB4506C6
:1003D00003FA06F108432061072A0FDA606B561E04
:1003E00006EB86071F2606FA07F18843561E06EB22
:1003F000860605FA06F10843606322E00D2A0FDA4B
:10040000206BD61F06EB86071F2606FA07F18843E6
:10041000D61F06EB860605FA06F10843206310E0B6
:10042000E06AA2F10D0606EB86071F2606FA07F121
:100430008843A2F10D0606EB860605FA06F108438D
:10044000E062F0BD816841F008018160704721B130
:10045000826842F4A002826003E0826822F4A00273
:1004600082607047816841F004018160704700BF7D
:10047000FEE770472DE9F0410246002500260020E6
:1004800000230024002791F803C00CF00F0591F819
:1004900003C00CF0100CBCF1000F03D091F802C0A7
:1004A0004CEA050591F800C0BCF1000F31D014688A
:1004B00000202BE04FF0010C0CFA00F3B1F800C063
:1004C0000CEA03069E4220D183004FF00F0C0CFA79
:1004D00003F7BC4305FA03FC4CEA040491F803C09B
:1004E000BCF1280F06D14FF0010C0CFA00FCC2F849
:1004F00014C00AE091F803C0BCF1480F05D14FF0D9
:10050000010C0CFA00FCC2F810C0401C0828D1D322
:100510001460B1F800C0BCF1FF0F34DD5468002056
:100520002EE000F1080C4FF0010808FA0CF3B1F8C6
:1005300000C00CEA03069E4221D183004FF00F0C4D
:100540000CFA03F7BC4305FA03FC4CEA040491F8E7
:1005500003C0BCF1280F05D100F1080C08FA0CF813
:10056000C2F8148091F803C0BCF1480F07D100F124
:10057000080C4FF0010808FA0CF8C2F81080401C73
:100580000828CED35460BDE8F0810000F0B50A46DB
:10059000002300240021002500F00046B6F1004FA2
:1005A00002D11D4EF16901E01B4E7168C0F3034595
:1005B00083B200F44016B6F5401F08D121F07061F7
:1005C000154E766826F07066134F7E6012E000F4D8
:1005D0008016B6F5801F06D1032606FA05F4A1435E
:1005E00041F0706106E0460D360103FA06F6B143AC
:1005F00041F0706122B1460D360103FA06F631432F
:1006000000F00046B6F1004F02D1034EF16101E067
:10061000014E7160F0BD00000000014000BFFEE728
:1006200000BFFEE7704708B54FF4C06000F048F81F
:100630001C208DF8000000208DF8010001208DF8AD
:1006400002008DF80300684600F002F808BD0000C3
:1006500070B5002100230F22C47804B3154C246820
:1006600004F4E064C4F5E064210AC1F10403CA4063
:10067000447804FA03F184781440214309010E4CB4
:100680000678A155047804F01F050124AC400578D4
:100690006D11AD0005F1E025C5F8004109E00478D1
:1006A00004F01F050124AC40044D0678761145F88E
:1006B000264070BD0CED00E000E400E080E100E0C9
:1006C00002490143024A1160704700000000FA0528
:1006D0000CED00E07047000001460020034A50681E
:1006E00020F4404008435060704700000010024072
:1006F00029B1064AD2690243044BDA6104E0034A95
:10070000D2698243014BDA61704700000010024059
:1007100029B1064A92690243044B9A6104E0034AF4
:1007200092698243014B9A617047000000100240B9
:1007300029B1064AD2680243044BDA6004E0034A56
:10074000D2688243014BDA6070470000001002401B
:10075000704710B500F002F810BD00000CB5002085
:10076000019000903348006840F4803031490860BF
:1007700000BF3048006800F4003000900198401C31
:100780000190009818B90198B0F5A06FF1D12948EF
:10079000006800F4003010B10120009001E000205A
:1007A00000900098012843D12348006840F01000D1
:1007B000214908600846006820F0030008600846E8
:1007C000006840F0020008601A4840681949486013
:1007D0000846406848600846406840F480604860C9
:1007E0000846406820F47C1048600846406840F4A1
:1007F000E81048600846006840F08070086000BF5C
:100800000C48006800F000700028F9D009484068E2
:1008100020F00300074948600846406840F00200A5
:10082000486000BF0348406800F00C000828F9D178
:100830000CBD000000100240002002407047000084
:1008400010B51348006840F00100114908600846DF
:100850004068104908400E494860084600680E4943
:1008600008400B4908600846006820F480200860B2
:100870000846406820F4FE0048604FF41F0088607E
:10088000FFF767FF4FF000600449086010BD0000EB
:10089000001002400000FFF8FFFFF6FE08ED00E048
:1008A0000EB501210846FFF723FF48F69F40ADF83B
:1008B000000040F2E730ADF804000020ADF806007B
:1008C000ADF8020069464FF0804000F01DF90121AB
:1008D000880700F07BF801221146900700F0A8F885
:1008E0000121880700F078F80EBD000010B5012145
:1008F000880700F08CF810B101200349087001212D
:10090000880700F066F810BD0000002000B589B02F
:1009100001210920FFF7FCFE01210220FFF7E8FE7C
:1009200001212148FFF732FE2020ADF820001820D9
:100930008DF8230003208DF8220008A91B48FFF73B
:1009400099FD40F26710ADF8140040F2E730ADF8C1
:1009500018000020ADF81A00ADF8160005A91448DB
:1009600000F0D2F87020ADF804000220ADF80C00C1
:10097000C820ADF80A000120ADF8060001A90C4816
:1009800000F060F808210A4800F0AEF8012108489C
:1009900000F010F80121064800F01EF8012104487B
:1009A00000F026F809B000BD00081A00000C014054
:1009B0000004004021B1028842F08002028004E07D
:1009C00002884FF67F731A4002807047CA43028242
:1009D0007047CA430282704721B1028842F0010287
:1009E000028004E002884FF6FE731A4002807047CE
:1009F00031B1B0F8442042F40042A0F8442005E0B0
:100A0000B0F84420C2F30E02A0F84420704730B57D
:100A10000246002000230024158A05EA0103958977
:100A200005EA010413B10CB1012000E0002030BD43
:100A30001AB183890B43838102E083898B438381CD
:100A40007047000070B5002400220023058C4FF68B
:100A5000EF7635400584028C8388048B48F6FF7559
:100A60002C404FF6FF452C400D884FF6FF7606EAE6
:100A700005252C434FF6DF752A400D8906EA05153A
:100A80002A434D8806EA05152A43154DA84202D08F
:100A9000144DA8421DD14FF67F752A404D894FF65F
:100AA000FF7606EA05152A434FF6BF752A408D8862
:100AB00006EA05152A434FF6FF352B404FF2FF7526
:100AC0002B408D8906EA85052B43CD8906EA8505ED
:100AD0002B4383800483CD880587028470BD00008A
:100AE000002C0140003401400A460021018B4FF2E6
:100AF000FF7319404FF6FF7303EA02231943018382
:100B00007047018770470000002202881D4B984201
:100B10000ED01D4B98420BD0B0F1804F08D01B4B2C
:100B2000984205D01A4B984202D01A4B984204D1F1
:100B30004FF68F731A404B881A43174B984207D0D1
:100B4000164B984204D04FF6FF431A40CB881A4305
:100B500002808B8883850B8803850A4B98420BD0D3
:100B6000094B984208D00E4B984205D00D4B984245
:100B700002D00D4B984201D10B7A03860123838268
:100B800070470000002C0140003401400004004088
:100B900000080040000C004000100040001400401D
:100BA00000400140004401400048014000BFFEE712
:100BB00002E008C8121F08C1002AFAD17047704726
:100BC000002001E001C1121F002AFBD17047000084
:100BD000FFF729FDFFF79AFEFFF762FEFFF708FB1C
:100BE00000201249087020E010480078E8B1104851
:100BF000FFF796FB0F4908800C88E11704EB1151B1
:100C000009134FF47A7201FB02F0FFF78BFA0A49DD
:100C1000086008460068FFF78EFA84B2214607484C
:100C2000FFF76FFF002001490870DDE7000000209A
:100C300000240140020000200400002000040040C5
:100C4000600C00080000002008000000B00B000845
:100C5000680C00080800002000040000C00B000819
:080C60000000AA0A0000803F19
:04000005080000ED02
:00000001FF
