:020000040800F2
:1000000030070020890100086D050008D1040008B0
:1000100069050008310200087708000800000000A8
:100020000000000000000000000000004106000881
:1000300035020008000000001D0600082D0700081A
:10004000A3010008A3010008A3010008A301000800
:10005000A3010008A3010008A3010008A3010008F0
:10006000A3010008A3010008A3010008A3010008E0
:10007000A3010008A3010008A3010008A3010008D0
:10008000A3010008A3010008A3010008A3010008C0
:10009000A3010008A3010008A3010008370200081B
:1000A000A3010008A3010008A3010008A3010008A0
:1000B000A3010008A3010008A3010008A301000890
:1000C000A3010008A3010008A3010008A301000880
:1000D000A301000891070008A3010008A30100087C
:1000E000A3010008A3010008A301000800F002F822
:1000F00000F03AF80AA090E8000C82448344AAF188
:100100000107DA4501D100F02FF8AFF2090EBAE885
:100110000F0013F0010F18BFFB1A43F0010318473B
:100120008C070000AC070000103A24BF78C878C1E3
:10013000FAD8520724BF30C830C144BF04680C60ED
:10014000704700000023002400250026103A28BF35
:1001500078C1FBD8520728BF30C148BF0B60704739
:100160001FB51FBD10B510BD00F033F81146FFF7E5
:10017000F7FF00F090FB00F051F803B4FFF7F2FF37
:1001800003BC00F07AFB000009488047094800479B
:10019000FEE7FEE7FEE7FEE7FEE7FEE7FEE7FEE737
:1001A000FEE7FEE704480549054A064B7047000094
:1001B00031070008ED000008300100203007002062
:1001C00030030020300300207047704770477047AD
:1001D0007047754600F028F8AE460500694653465C
:1001E00020F00700854618B020B5FFF7DBFFBDE81B
:1001F00020404FF000064FF000074FF000084FF08E
:10020000000B21F00701AC46ACE8C009ACE8C0091E
:10021000ACE8C009ACE8C0098D4670470446AFF3AE
:1002200000802046FFF7A9FF00487047D00000205B
:1002300000BFFEE7704710B500F074F904462020B7
:1002400000F030F878B1052000F01AFB202000F013
:1002500029F840B114B100F073F901E000F07AF927
:10026000202000F001F810BD01490860704700002F
:10027000140401401CB50121084600F0D1F9052104
:10028000002000F06DF82020009000208DF8040080
:100290000C208DF8050001208DF80600684600F05E
:1002A00015F81CBD014600200022074B1B6803EA1D
:1002B0000102054B14331B680B4013B10AB1012036
:1002C00000E00020704700000004014000212349A5
:1002D0008279002A3AD00A46126803689A430B468C
:1002E0001A600A1D126803689A430B1D1A6002798E
:1002F00011440A6803681A430A60184A08321268EF
:1003000003689A43154B08331A601A1D1268036874
:100310009A43124B0C331A604279102A0ED11A1FDD
:10032000126803681A430D4B08331A601A1D1268CD
:1003300003681A43094B0C331A600DE007494279F0
:1003400011440A6803681A430A6005E002791144FF
:100350000A6803689A430A6070470000000401407D
:1003600030B500228B071C0F0F2303FA04F20B4B4E
:100370008C1053F824309343084C8D1044F82530EA
:1003800023468C1053F824308C07240F00FA04F411
:100390002343024C8D1044F8253030BD0800014045
:1003A0002DE9F0410246002500260020002300240C
:1003B000002791F803C00CF00F0591F803C00CF072
:1003C000100CBCF1000F03D091F802C04CEA0505F7
:1003D00091F800C0BCF1000F31D0146800202BE070
:1003E0004FF0010C0CFA00F3B1F800C00CEA030660
:1003F0009E4220D183004FF00F0C0CFA03F7BC4350
:1004000005FA03FC4CEA040491F803C0BCF1280F80
:1004100006D14FF0010C0CFA00FCC2F814C00AE03F
:1004200091F803C0BCF1480F05D14FF0010C0CFA54
:1004300000FCC2F810C0401C0828D1D31460B1F8E9
:1004400000C0BCF1FF0F34DD546800202EE000F145
:10045000080C4FF0010808FA0CF3B1F800C00CEAE0
:1004600003069E4221D183004FF00F0C0CFA03F7D4
:10047000BC4305FA03FC4CEA040491F803C0BCF148
:10048000280F05D100F1080C08FA0CF8C2F8148006
:1004900091F803C0BCF1480F07D100F1080C4FF0F0
:1004A000010808FA0CF8C2F81080401C0828CED3C6
:1004B0005460BDE8F08102460020D3680B400BB1C8
:1004C000012000E0002070474161704701617047E2
:1004D00000BFFEE708B50121042000F0A1F8482084
:1004E0008DF803002020ADF8000069460148FFF7B1
:1004F00057FF08BD0008014008B50121042000F0A5
:100500008FF84FF48070ADF8000010208DF80300D4
:1005100002208DF8020069460148FFF741FF08BD3F
:100520000008014010B54FF480710448FFF7C3FF85
:1005300008B9012010BD0020FCE7000000080140C0
:1005400010B54FF480710248FFF7C0FF10BD0000E6
:100550000008014010B54FF480710248FFF7B4FF66
:1005600010BD00000008014000BFFEE7704708B55D
:100570004FF4C06000F048F817208DF8000000200C
:100580008DF8010001208DF802008DF80300684607
:1005900000F002F808BD000070B5002100230F2212
:1005A000C47804B3154C246804F4E064C4F5E06432
:1005B000210AC1F10403CA40447804FA03F18478A3
:1005C0001440214309010E4C0678A155047804F02B
:1005D0001F050124AC4005786D11AD0005F1E02543
:1005E000C5F8004109E0047804F01F050124AC407F
:1005F000044D0678761145F8264070BD0CED00E0FC
:1006000000E400E080E100E002490143024A116099
:10061000704700000000FA050CED00E07047000094
:1006200029B1064A92690243044B9A6104E0034AE5
:1006300092698243014B9A617047000000100240AA
:10064000704710B500F002F810BD00000CB5002096
:10065000019000903348006840F4803031490860D0
:1006600000BF3048006800F4003000900198401C42
:100670000190009818B90198B0F5A06FF1D1294800
:10068000006800F4003010B10120009001E000206B
:1006900000900098012843D12348006840F01000E2
:1006A000214908600846006820F0030008600846F9
:1006B000006840F0020008601A4840681949486024
:1006C0000846406848600846406840F480604860DA
:1006D0000846406820F47C1048600846406840F4B2
:1006E000E81048600846006840F08070086000BF6D
:1006F0000C48006800F000700028F9D009484068F4
:1007000020F00300074948600846406840F00200B6
:10071000486000BF0348406800F00C000828F9D189
:100720000CBD000000100240002002407047000095
:1007300010B51348006840F00100114908600846F0
:100740004068104908400E494860084600680E4954
:1007500008400B4908600846006820F480200860C3
:100760000846406820F4FE0048604FF41F0088608F
:10077000FFF767FF4FF000600449086010BD0000FC
:10078000001002400000FFF8FFFFF6FE08ED00E059
:1007900010B540F225511D4800F03EF810B31B483B
:1007A00000F064F8C4B21A48008800F40040C8B9E8
:1007B0001748008800F4804060B10A2C03D0002064
:1007C0001349088020E01248008840F40040104996
:1007D000088019E00D2C06D10D48008840F48040B7
:1007E0000B49088010E00A480088C0F30D00094951
:1007F0000C5407480088401C0549088008460088BA
:10080000C72801DD0020088010BD0000003801402D
:10081000040000200800002070B5024600240023D8
:100820000025002040F66A16B14200D100BFC1F396
:10083000421501F01F03012606FA03F3012D02D130
:100840009689334006E0022D02D1168A334001E03A
:10085000968A33400C12012606FA04F416883440B6
:1008600013B10CB1012000E0002070BD0146888862
:10087000C0F30800704700BFFEE7014600BF7047A5
:10088000014605E06E2200E0521E002AFCD1491EFE
:100890000029F7D17047FFF72FFEFFF71BFEFFF788
:1008A000E9FCFFF764FE00BFFEE70000CC0800088B
:1008B000000000200800000028010008D4080008FB
:1008C0000800002028070000440100080000000084
:0408D0000000000024
:04000005080000ED02
:00000001FF
