:020000040800F2
:100000001004002001010008EB0A0008E30A0008C0
:10001000E70A0008E9080008ED0E000800000000EB
:10002000000000000000000000000000350C000887
:10003000E10A000800000000990B0008210D0008EB
:100040001B0100081B0100081B0100081B01000820
:100050001B0100081B0100081B0100081B01000810
:100060001B0100081B0100081B0100081B01000800
:100070001B0100081B0100081B0100081B010008F0
:100080001B0100081B0100081B0100081B010008E0
:100090001B0100081B0100081B0100081B010008D0
:1000A0001B0100081B0100081B0100081B010008C0
:1000B000D10D00081B0100081B0100081B010008EE
:1000C0001B0100081B0100081B0100081B010008A0
:1000D0001B0100081B0100081B0100081B01000890
:1000E0001B0100081B0100081B010008DFF80CD0F1
:1000F00000F08AFA00480047110F000810040020A1
:100100000648804706480047FEE7FEE7FEE7FEE7B1
:10011000FEE7FEE7FEE7FEE7FEE7FEE7250D000847
:10012000ED0000082DE9FE4F804681EA0300C00F74
:100130000C46009021F0004123F00045B8EB02008E
:10014000A94105D24046214690461C460B46024630
:1001500023F00040104347D0270DC7F30A00C3F334
:100160000A510290401A019040286BDAC3F3130041
:1001700040F4801B0098924620B10023D2EB030A82
:1001800063EB0B0B01985946C0F14002504600F05A
:1001900085F906460D4650465946019A00F08DF9FC
:1001A00010EB08006141002487EA115284EAE773EA
:1001B0001A4340D0009A62B3019A012A4FEA0752CB
:1001C00015DC001B61EB02014FF0004202EA07520E
:1001D000CDE90042001C41F5801132462B4600F06B
:1001E000C4F903B0BDE8F08F40462146F9E7001B93
:1001F00061EB0201001C41F5801300185B412018DF
:10020000A2F5001747EB030140EAD570B6196D411E
:1002100011E06D084FEA360645EAC0754FEA07520D
:10022000001B61EB0201001C41F5801149084FEAF7
:1002300030000019514132462B4603B0BDE8F04F63
:1002400000F084B90098012240000023D0EB0202A4
:1002500063EBE073009821464FEAE074B8EB0000CE
:1002600061EB0401E9E783F000435BE781F00041C3
:1002700058E72DE9FE4F81EA030404F0004421F021
:10028000004100944FF0000B23F0004350EA0104BA
:100290005ED052EA03045BD0C3F30A54C1F30A559B
:1002A0002C44A4F2F3340194A0FB0254C1F31301D3
:1002B00041F48011C3F3130343F4801301FB0244A0
:1002C00000FB034E840A970A44EA815447EA8357A5
:1002D000A4FB076802958D0A05FB07854FEA932C5E
:1002E00004FB0C542705029D4FEA065847EA1637CF
:1002F000B5EB08056EEB070C870E920E47EA8117E7
:1003000042EA8312A7FB0201B6EB0B0164EB000487
:100310002B0D43EA0C335E1844EB1C50DA46514671
:10032000E7FB0201C5F313044FEA0B3343EA14530E
:100330004FEA0432019C43EA0603A4F10C04029440
:10034000009CCDE900B400F010F903B0BDE8F08FD7
:1003500000200146F9E72DE9F04D81EA030404F09D
:10036000004B21F0004514464FF0000A23F00041F5
:1003700050EA050220D054EA01021DD0C5F30A5705
:100380000246C5F31303C1F31300C1F30A5640F448
:10039000801543F48013A7EB0608101BD64608F21D
:1003A000FD3873EB050002D308F1010801E0921853
:1003B0005B41B8F1000F03DA00200146BDE8F08D83
:1003C00000204FF48011064684460EE0171B73EBA5
:1003D000050705D3121B63EB050306434CEA010C2A
:1003E00049084FEA300092185B4150EA0107EDD10D
:1003F00052EA030012D082EA040083EA05010843AE
:1004000005D0101BAB4106D20122002306E00022DA
:100410004FF0004302E06FF0010253101AEB0600A8
:100420004CEB085110EB0A0041EB0B01BDE8F04D1D
:1004300000F08CB896230022114600F059B800F065
:10044000004230F000400AD0C10D01F56071C0F3E8
:10045000160042EA0151C2084007114370470020CC
:100460000146704701F0004330B421F0004150EAEA
:10047000010206D00A0DA2F56072C1F31301002A31
:1004800002DC30BC00207047440F44EAC104C100C4
:10049000E01830BC00EBC25000F021B8202A04DB89
:1004A000203A00FA02F1002070479140C2F1200387
:1004B00020FA03F3194390407047202A06DBCB173C
:1004C000203A41FA02F043EAE07306E041FA02F30F
:1004D000D040C2F1200291400843194670470029DC
:1004E000A8BF7047401C490008BF20F001007047BA
:1004F00010B4B0FA80FC00FA0CF050EA010404BF1A
:1005000010BC704749B1CCF1200421FA04F411FA6F
:100510000CF118BF012121430843A3EB0C01CB1DB3
:100520004FEA00614FEA102042BF002010BC704724
:1005300000EBC35010440029A4BF10BC7047401CFE
:10054000490008BF20F0010010BC704710B5141E10
:1005500073F1000408DA401C41F1000192185B417C
:100560001A4301D120F0010010BD2DE9F04D924653
:100570009B4611B1B1FA81F202E0B0FA80F220326A
:100580009046FFF78BFF04460F4640EA0A0041EA17
:100590000B0153465A46084313D0114653EA010053
:1005A00019D0C8F14002504600F040F805460E460A
:1005B000504659464246FFF771FF084305D00120D7
:1005C00004E020463946BDE8F08D0020054346EAA8
:1005D000E0762C4337430A986305E40AA0EB080051
:1005E0000022FD0A44EA47540A3002D500200146A1
:1005F000E9E7010510196941DDE90845001969417C
:10060000BDE8F04DA2E70000064C074D06E0E068AB
:1006100040F0010394E8070098471034AC42F6D349
:10062000FFF768FDC00F0008E00F0008202A04DB78
:10063000203A21FA02F00021704721FA02F3D0405B
:10064000C2F12002914008431946704700B585B0B9
:100650000121480200F0CEFA4FF4004000F09EFA6B
:100660001E4800F053F80020009001208DF804008F
:100670008DF805008DF810004FF4602002900020E6
:1006800003906946154800F083F8062301220821EB
:10069000124800F0A5F8012000F014F901210F48DC
:1006A00000F029F801210D4800F01AF80B4800F07D
:1006B000F3F800BF094800F061F80028FAD10748B4
:1006C00000F0FAF800BF054800F04EF80028FAD113
:1006D0000121024800F0E5F805B000BD002401400A
:1006E00021B1826842F00102826003E0826822F058
:1006F00001028260704721B1826842F48072826098
:1007000003E0826822F480728260704710B504466C
:100710001248844208D10121401500F07BFA0021E3
:10072000601500F077FA17E00D48844208D10121E6
:10073000001500F06FFA0021201500F06BFA0BE0B5
:100740000848844208D10121C80300F063FA00215F
:100750004FF4004000F05EFA10BD0000002401409C
:1007600000280140003C0140014600208A6802F058
:1007700004020AB1012000E0002070470146002079
:100780008A6802F008020AB1012000E000207047E8
:1007900030B502460020002350680F4C20400D79F0
:1007A0000C6844EA05242043506090680B4C2040BC
:1007B000D1E902542C434D7944EA4504204390602A
:1007C000D06A20F470000C7C641EE4B2234340EA3B
:1007D0000350D06230BD0000FFFEF0FFFDF7F1FFD7
:1007E000F0B504460D4600200021092D11DDE0681A
:1007F000A5F10A0606EB4607072606FA07F1884325
:10080000A5F10A0606EB460603FA06F10843E06086
:100810000CE0206905EB4507072606FA07F1884337
:1008200005EB450603FA06F108432061072A0FDAB3
:10083000606B561E06EB86071F2606FA07F18843F3
:10084000561E06EB860605FA06F10843606322E0B1
:100850000D2A0FDA206BD61F06EB86071F2606FA35
:1008600007F18843D61F06EB860605FA06F1084312
:10087000206310E0E06AA2F10D0606EB86071F2652
:1008800006FA07F18843A2F10D0606EB860605FA83
:1008900006F10843E062F0BD816841F00801816023
:1008A000704721B1826842F4A002826003E082684E
:1008B00022F4A00282607047816841F004018160E7
:1008C0007047000030B10749096841F40001054A4A
:1008D000116005E00349096821F40001014A116033
:1008E000704700000824014000BFFEE721B1026804
:1008F00042F00102026004E002684FF6FE731A4003
:100900000260704700B58BB00121084600F052F933
:100910000E4800F021F80E4800900E48019000208B
:100920000290012003900020049005902020089060
:100930000002099000200A906946044800F0B2F8CD
:1009400001210248FFF7D2FF0BB000BD08000240B2
:100950004C2401400200002001684FF6FE72114055
:1009600001600021016041608160C1604B498842A3
:1009700008D14A490839496841F00F01474A083A05
:1009800051608AE045491431884208D14349083909
:10099000496841F0F001414A083A51607DE03F4921
:1009A0002831884208D13D490839496841F47061CD
:1009B0003A4A083A516070E038493C31884208D1DF
:1009C00036490839496841F47041344A083A51605F
:1009D00063E032495031884208D1304908394968CA
:1009E00041F470212D4A083A516056E02B49643198
:1009F000884208D129490839496841F47001274AD9
:100A0000083A516049E025497831884208D12349A4
:100A10000839496841F07061204A083A51603CE069
:100A20001F49884206D1011F096841F00F01021FCA
:100A3000116032E01A491431884208D11849091F5F
:100A4000096841F0F001164A121F116025E01449AF
:100A50002831884208D11249091F096841F47061A0
:100A60000F4A121F116018E00D493C31884208D12D
:100A70000B49091F096841F47041094A121F1160AE
:100A80000BE007495031884207D10549091F096821
:100A900041F47021024A121F1160704708000240A1
:100AA0000804024010B50022026847F6F0739A432A
:100AB0000C6A8B6823430C6923434C6923438C697C
:100AC0002343CC6923434C6A23438C6A23431A4350
:100AD0000260CB6843600B6883604B68C36010BDE5
:100AE000704700BFFEE700BFFEE7704708B54FF450
:100AF000C06000F047F81C208DF8000000208DF841
:100B0000010001208DF802008DF80300684600F016
:100B100001F808BD70B5002100230F22C47804B38A
:100B2000154C246804F4E064C4F5E064210AC1F1C2
:100B30000403CA40447804FA03F184781440214342
:100B400009010E4C0678A155047804F01F05012414
:100B5000AC4005786D11AD0005F1E025C5F8004108
:100B600009E0047804F01F050124AC40044D067828
:100B7000761145F8264070BD0CED00E000E400E081
:100B800080E100E002490143024A11607047000021
:100B90000000FA050CED00E070470000014600205F
:100BA000034A506820F440400843506070470000FA
:100BB0000010024029B1064A52690243044B5A61AF
:100BC00004E0034A52698243014B5A6170470000B6
:100BD0000010024029B1064AD2690243044BDA618F
:100BE00004E0034AD2698243014BDA617047000096
:100BF0000010024029B1064A92690243044B9A61EF
:100C000004E0034A92698243014B9A6170470000F5
:100C10000010024029B1064AD2680243044BDA6050
:100C200004E0034AD2688243014BDA607047000057
:100C300000100240704710B500F002F810BD00002F
:100C40000CB50020019000903348006840F48030DB
:100C50003149086000BF3048006800F4003000905F
:100C60000198401C0190009818B90198B0F5A06F48
:100C7000F1D12948006800F4003010B10120009043
:100C800001E0002000900098012843D1234800682B
:100C900040F01000214908600846006820F0030079
:100CA00008600846006840F0020008601A48406882
:100CB000194948600846406848600846406840F462
:100CC000806048600846406820F47C104860084610
:100CD000406840F4E81048600846006840F08070C2
:100CE000086000BF0C48006800F000700028F9D0D0
:100CF0000948406820F003000749486008464068FA
:100D000040F00200486000BF0348406800F00C005B
:100D10000828F9D10CBD000000100240002002405C
:100D20007047000010B51348006840F001001149F9
:100D3000086008464068104908400E494860084667
:100D400000680E4908400B4908600846006820F416
:100D5000802008600846406820F4FE0048604FF498
:100D60001F008860FFF767FF4FF0006004490860CC
:100D700010BD0000001002400000FFF8FFFFF6FE6B
:100D800008ED00E00EB501210846FFF723FF48F605
:100D90009F40ADF8000042F20F70ADF80400002053
:100DA000ADF80600ADF8020069464FF0804000F053
:100DB0004BF80121880700F01BF80122114690072B
:100DC00000F039F80121880700F018F80EBD000086
:100DD00010B50121880700F01DF810B1012003496A
:100DE00008700121880700F006F810BD00000020FF
:100DF000CA4302827047CA430282704721B1028807
:100E000042F00102028004E002884FF6FE731A40AD
:100E10000280704730B50246002000230024158A66
:100E200005EA0103958905EA010413B10CB101201B
:100E300000E0002030BD1AB183890B43838102E0BA
:100E400083898B4383817047002202881D4B98421F
:100E50000ED01D4B98420BD0B0F1804F08D01B4BE9
:100E6000984205D01A4B984202D01A4B984204D1AE
:100E70004FF68F731A404B881A43174B984207D08E
:100E8000164B984204D04FF6FF431A40CB881A43C2
:100E900002808B8883850B8803850A4B98420BD090
:100EA000094B984208D00E4B984205D00D4B984202
:100EB00002D00D4B984201D10B7A03860123838225
:100EC00070470000002C0140003401400004004045
:100ED00000080040000C00400010004000140040DA
:100EE00000400140004401400048014000BFFEE7CF
:100EF00002E008C8121F08C1002AFAD170477047E3
:100F0000002001E001C1121F002AFBD17047000040
:100F100088B0FFF7EBFDFFF735FFFFF7F3FCFFF7B6
:100F200095FB00201C49087035E01B48007800281C
:100F300031D01A480088FFF77DFA0190FFF77FFA59
:100F400080464FF06632164BFFF793F90022154B9F
:100F5000CDE90201FFF7FFF90646134A134BFFF7ED
:100F600085F90022124BCDE90401FFF782F94FF019
:100F70003332104BCDE90601FFF7EDF904460022AC
:100F80000D4BFFF7CFF88246FFF76CFA0B4908606C
:100F9000002001490870C8E700000020020000207E
:100FA00066660A400000B040E17A14AE47E1F63FC1
:100FB00000408F40333311400000394004000020CE
:100FC000E00F0008000000200C000000F00E0008F8
:100FD000EC0F00080C00002004040000000F0008C3
:0C0FE0000000AA0A0000803F0000000092
:04000005080000ED02
:00000001FF
