:020000040800F2
:10000000D0040020010100083B030008B5010008EE
:10001000370300086D010008DB090008000000003C
:10002000000000000000000000000000A50700081C
:1000300071010008000000009905000891080008FF
:100040001B0100081B0100081B0100081B01000820
:100050001B0100081B0100081B0100081B01000810
:100060001B0100081B0100081B0100081B01000800
:100070001B0100081B0100081B0100081B010008F0
:100080001B0100081B0100081B0100081B010008E0
:100090001B0100081B0100081B0100081B010008D0
:1000A0001B0100081B0100081B0100081B010008C0
:1000B0001B0100081B0100081B0100081B010008B0
:1000C0001B0100081B0100081B0100081B010008A0
:1000D0001B010008F50800081B0100081B010008AF
:1000E0001B0100081B0100081B010008DFF80CD0F1
:1000F00000F02AF800480047FD090008D00400205D
:100100000648804706480047FEE7FEE7FEE7FEE7B1
:10011000FEE7FEE7FEE7FEE7FEE7FEE795080008DC
:10012000ED00000840EA01039B0703D009E008C97D
:10013000121F08C0042AFAD203E011F8013B00F8AC
:10014000013B521EF9D27047064C074D06E0E068AD
:1001500040F0010394E8070098471034AC42F6D30E
:10016000FFF7C8FF141500083415000800BFFEE7AC
:100170007047002100E0491C8142FCD37047000019
:100180000549096821F01001034A11601146096808
:10019000014311607047000000200240014600202A
:1001A000034A106800F038000843106070470000F0
:1001B0000020024000BFFEE770B502460024002583
:1001C00000230020958A138B1B0445EA030626F0C2
:1001D0007F4404EA01068E4201D1012000E00020A4
:1001E00070BD21B1028842F48072028004E002886E
:1001F0004FF6FF631A400280704721B1028842F433
:100200000072028004E002884FF6FF531A40028019
:10021000704700002DE9F04105460F4614461E4682
:1002200001211D48FFF7DDFF00BF1C491A48FFF7F9
:10023000C3FF0028F9D000222946174800F070F8C3
:1002400000BF17491448FFF7B7FF0028F9D0394617
:10025000114800F06EF800BF1149891C0E48FFF7E5
:10026000ABFF0028F8D00CE021780B4800F061F8D3
:10027000641C00BF0A49891C0748FFF79DFF00283E
:10028000F8D03000A6F101018EB2EDD10121024873
:10029000FFF7B3FFBDE8F081005400400100030008
:1002A0008200070070B504460E4615460121194824
:1002B000FFF797FF00BF18491648FFF77DFF00289A
:1002C000F9D000222146134800F02AF800BF134954
:1002D0001048FFF771FF0028F9D031460D4800F0B3
:1002E00028F800BF0D49891C0A48FFF765FF002860
:1002F000F8D02946074800F01CF800BF0749891CC0
:100300000448FFF759FF0028F8D001210148FFF702
:1003100074FF70BD0054004001000300820007001C
:1003200012B141F0010102E04FF6FE731940018263
:1003300070470182704700BFFEE7704710B500F0BC
:10034000EFF800F0AFF800F0DDF810BD2DE9F04750
:1003500005460C4616464FF0000AD14638E005F136
:10036000B000C2B200217820FFF79CFF2746E017BB
:1003700004EB107000111030C2B200217820FFF79A
:1003800091FFE01704EB10700011A4EB0010C2B253
:1003900000217820FFF786FF4FF000080FE00AEBFE
:1003A000461010490A5C40217820FFF77BFF0AF1D4
:1003B000010000F0FF0A08F1010000F0FF08B8F1A9
:1003C000080FECDB681CC5B209F1010000F0FF0961
:1003D000B9F1020FC3DBAF2200217820FFF762FFE3
:1003E000BDE8F087780A00082DE9F04705460C467D
:1003F00016464FF0000AD1463AE005F1B000C2B20D
:1004000000217820FFF74EFF2746E01704EB10701D
:1004100000111030C2B200217820FFF743FFE0172F
:1004200004EB10700011A4EB0010C2B20021782080
:10043000FFF738FF4FF0000811E00AEB0610A0F5B7
:1004400000700E490A5C40217820FFF72BFF0AF16B
:10045000010000F0FF0A08F1010000F0FF08B8F108
:10046000080FEADB681CC5B209F1010000F0FF09C2
:10047000B9F1020FC1DBBDE8F0870000780A00087F
:1004800070B506460C46002508E014F8012BE80676
:10049000010E3046FFF7A8FF681CC5B2207800287F
:1004A000F3D170BD70B5B0241BE022460021782046
:1004B000FFF7F8FE102200217820FFF7F3FE00225C
:1004C00011467820FFF7EEFE002506E000224021CD
:1004D0007820FFF7E7FE681CC5B2842DF6DB601CB0
:1004E000C4B2B82CE1DB70BD10B5044681220021F6
:1004F0007820FFF7D7FE224600217820FFF7D2FEB2
:1005000010BD000008B505A00068009003236A46EE
:1005100000217820FFF77EFE08BD0000AE8D1000A0
:1005200000B587B01C2206496846FFF7FBFD1C2377
:100530006A4600217820FFF76DFE07B000BD00007D
:10054000F814000870B5002420E004F1B000C2B235
:1005500000217820FFF7A6FE102200217820FFF767
:10056000A1FE022200217820FFF79CFE002509E071
:1005700005EBC41007490A5C40217820FFF792FE82
:10058000681CC5B2802DF3DB601CC4B2082CDCDB18
:1005900070BD0000F8100008704710B500F030F88A
:1005A0004FF4803000F084F800F0E0F80446012CAD
:1005B00024D14FF4E011000400F0BEF8002000F058
:1005C0006BF8A00200F09AF8002000F0A3F80220D7
:1005D000FFF7E4FD1020FFF7D3FD012000F0A6F89F
:1005E00000BF392000F032F80028FAD0022000F0D5
:1005F000B1F800BF00F048F80828FBD110BD00009A
:100600000F48006840F001000D4908600846406846
:100610000C4908400A494860084600680A490840F1
:10062000074908600846006820F4802008600846F2
:10063000406820F4FE0048604FF41F008860704757
:10064000001002400000FFF8FFFFF6FE10B5014663
:100650000022002300204A11012A02D1094C2368FC
:1006600006E0022A02D1074C236A01E0054C636AC6
:1006700001F01F02012494401C400CB1012000E055
:10068000002010BD001002400248406800F00C003D
:10069000704700000010024001460020034A5068E5
:1006A00020F0F00008435060704700000010024046
:1006B0001149096821F480310F4A11601146096817
:1006C00021F480211160B0F5803F03D0B0F5802F78
:1006D0000ED106E00849096841F48031064A1160EC
:1006E00007E00549096841F4A021034A116000E0D0
:1006F00000BF00BF7047000000100240014600200C
:10070000034A506820F4E0600843506070470000DE
:100710000010024001460020034A506820F4605057
:1007200040EAC1005060704700100240014908666D
:10073000704700000000424202460020044B586807
:1007400020F47C1042EA01031843014B58607047C3
:100750000010024001460020034A506820F00300C8
:1007600008435060704700000010024038B5002078
:1007700000900024002500BF3120FFF767FF0546E9
:100780000098401C00900098B0F5A06F01D0002D9B
:10079000F2D03120FFF75AFF08B1012400E0002415
:1007A000204638BD704710B500F002F810BD0000BB
:1007B0000CB50020019000903348006840F4803070
:1007C0003149086000BF3048006800F400300090F4
:1007D0000198401C0190009818B90198B0F5A06FDD
:1007E000F1D12948006800F4003010B101200090D8
:1007F00001E0002000900098012843D123480068C0
:1008000040F01000214908600846006820F003000D
:1008100008600846006840F0020008601A48406816
:10082000194948600846406848600846406840F4F6
:10083000806048600846406820F47C1048600846A4
:10084000406840F4E81048600846006840F0807056
:10085000086000BF0C48006800F000700028F9D064
:100860000948406820F0030007494860084640688E
:1008700040F00200486000BF0348406800F00C00F0
:100880000828F9D10CBD00000010024000200240F1
:100890007047000010B51348006840F0010011498E
:1008A000086008464068104908400E4948600846FC
:1008B00000680E4908400B4908600846006820F4AB
:1008C000802008600846406820F4FE0048604FF42D
:1008D0001F008860FFF767FF4FF000600449086061
:1008E00010BD0000001002400000FFF8FFFFF6FE00
:1008F00008ED00E010B540F225511D4800F03EF82B
:1009000010B31B4800F064F8C4B21A48008800F421
:100910000040C8B91748008800F4804060B10A2C34
:1009200003D000201349088020E01248008840F4DA
:1009300000401049088019E00D2C06D10D480088B0
:1009400040F480400B49088010E00A480088C0F35A
:100950000D0009490C5407480088401C05490880CF
:1009600008460088C72801DD0020088010BD00006F
:1009700000380140040000200800002070B5024645
:10098000002400230025002040F66A16B14200D161
:1009900000BFC1F3421501F01F03012606FA03F35D
:1009A000012D02D19689334006E0022D02D1168A2C
:1009B000334001E0968A33400C12012606FA04F413
:1009C0001688344013B10CB1012000E0002070BD46
:1009D00001468888C0F30800704700BFFEE702E0C8
:1009E00008C8121F08C1002AFAD1704770470020BA
:1009F00001E001C1121F002AFBD1704741F288308B
:100A0000FFF7B7FBFFF79AFCFFF7C7FD6420FFF77E
:100A10006BFDFFF797FD4CF25030FFF7AAFBFFF795
:100A200041FD0FA10020FFF72BFD11A10620FFF7CC
:100A300027FD002220210220FFF788FC012230211F
:100A40000220FFF783FC022240211046FFF77EFCC4
:100A5000032250210220FFF779FC00BFFEE70000CF
:100A6000202020596F756E6754616C6B2000000068
:100A7000202054656D703A00000000000000000066
:100A80000000000000000000000038FCFC380000FE
:100A90000000000D0D000000000E1E00001E0E00E4
:100AA000000000000000000020F8F820F8F8200006
:100AB000020F0F020F0F0200387C444747CC98000A
:100AC0000306041C1C07030030300080C0603000A7
:100AD0000C060301000C0C0080D87CE4BCD840005C
:100AE000070F0808070F080000101E0E0000000086
:100AF00000000000000000000000F0F80C040000FE
:100B0000000003070C0800000000040CF8F00000CF
:100B10000000080C0703000080A0E0C0C0E0A08037
:100B20000002030101030200008080E0E0808000F9
:100B300000000003030000000000000000000000AF
:100B40000000101E0E0000008080808080808000E9
:100B50000000000000000000000000000000000095
:100B60000000000C0C00000000000080C06030009D
:100B70000C06030100000000F8FC04C424FCF8008B
:100B8000070F0908080F0700001018FCFC00000000
:100B90000008080F0F080800080C84C4643C180003
:100BA0000E0F0908080C0C00080C444444FCB80063
:100BB000040C0808080F0700C0E0B098FCFC800097
:100BC000000000080F0F08007C7C4444C4C484006B
:100BD000040C0808080F0700F0F84C4444C08000DB
:100BE000070F0808080F07000C0C0484C47C3C00A5
:100BF00000000F0F00000000B8FC444444FCB800A3
:100C0000070F0808080F0700387C444444FCF8002C
:100C1000000808080C070300000000303000000046
:100C20000000000606000000000000303000000058
:100C30000000080E060000000080C06030180800A8
:100C400000000103060C08004040404040404000C6
:100C500002020202020202000008183060C0800096
:100C600000080C0603010000181C04C4E43C180032
:100C70000000000D0D000000F0F808C8C8F8F000F2
:100C8000070F080B0B0B0100E0F0988C98F0E000C8
:100C90000F0F0000000F0F0004FCFC4444FCB800E0
:100CA000080F0F08080F0700F0F80C04040C1800D8
:100CB00003070C08080C060004FCFC040CF8F00008
:100CC000080F0F080C07030004FCFC44E40C1C0094
:100CD000080F0F08080C0E0004FCFC44E40C1C0078
:100CE000080F0F0800000000F0F80C84848C9800B6
:100CF00003070C0808070F00FCFC404040FCFC0008
:100D00000F0F0000000F0F00000004FCFC040000A7
:100D10000000080F0F08000000000004FCFC0400A5
:100D2000070F08080F07000004FCFCC0F03C0C0093
:100D3000080F0F00010F0E0004FCFC04000000006F
:100D4000080F0F08080C0E00FCFC387038FCFC0083
:100D50000F0F0000000F0F00FCFC3870E0FCFC00DF
:100D60000F0F0000000F0F00F0F80C040CF8F0005B
:100D700003070C080C07030004FCFC44447C380007
:100D8000080F0F0800000000F8FC040404FCF80041
:100D9000070F080E3C3F270004FCFC44C4FC38004D
:100DA000080F0F00000F0F00183C6444C49C18008B
:100DB000060E0808080F0700001C0CFCFC0C1C00A9
:100DC0000000080F0F080000FCFC000000FCFC0005
:100DD000070F0808080F0700FCFC000000FCFC00DF
:100DE0000103060C06030100FCFC008000FCFC0073
:100DF000030F0E030E0F03000C3CF0C0F03C0C0080
:100E00000C0F0300030F0C00003C7CC0C07C3C00B6
:100E10000000080F0F0800001C0C84C4643C1C0078
:100E20000E0F0908080C0E000000FCFC0404000072
:100E300000000F0F080800003870E0C080000000BC
:100E40000000000103070E0000000404FCFC000089
:100E5000000008080F0F0000080C0603060C08002D
:100E60000000000000000000000000000000000082
:100E70002020202020202020000003070400000064
:100E8000000000000000000000A0A0A0E0C00000E2
:100E9000070F0808070F080004FCFC2060C0800052
:100EA000080F0708080F0700C0E02020206040005E
:100EB000070F0808080C040080C06024FCFC000038
:100EC000070F0808070F0800C0E0A0A0A0E0C000BE
:100ED000070F0808080C040040F8FC440C18000038
:100EE000080F0F0800000000C0E02020C0E0200034
:100EF000276F48487F3F000004FCFC4020E0C00012
:100F0000080F0F00000F0F00000020ECEC000000A5
:100F10000000080F0F0800000000000020ECEC00AB
:100F200000307040407F3F0004FCFC80C060200027
:100F3000080F0F01030E0C00000004FCFC00000071
:100F40000000080F0F080000E0E060C060E0C00093
:100F50000F0F000F000F0F0020E0C02020E0C000A6
:100F6000000F0F00000F0F00C0E0202020E0C000A5
:100F7000070F0808080F070020E0C02020E0C0008D
:100F8000407F7F48080F0700C0E02020C0E020001D
:100F9000070F08487F7F400020E0C0602060C0004D
:100FA000080F0F080000000040E0A0202060400073
:100FB000040C09090B0E04002020F8FC202000007E
:100FC0000000070F080C0400E0E00000E0E0000073
:100FD000070F0808070F080000E0E00000E0E0004D
:100FE0000003070C0C070300E0E0000000E0E00055
:100FF000070F0C070C0F07002060C080C0602000A6
:10100000080C0703070C0800E0E0000000E0E00027
:10101000474F4848683F1F00606020A0E060200004
:101020000C0E0B09080C0C00004040F8BC04040036
:10103000000000070F080800000000BCBC00000012
:101040000000000F0F000000000404BCF840400046
:101050000008080F07000000080C040C080C04002E
:10106000000000000000000080C0603060C0800010
:1010700007070404040707001022640C8008494A8B
:101080004CF84C4A490800000404FE01040404041E
:1010900004FF0404040604001010D0FF5090204008
:1010A000FF00FF4020300000040300FF80442219AD
:1010B00007003F414640700000F848484848FF4854
:1010C000484848FC080000000007020202023F42B4
:1010D000424242474070000080808282828282E2E7
:1010E000A2928A8680C08000000000000040807FBD
:1010F00000000000000000000000000000000000F0
:1011000000000000000000000000000000000000DF
:1011100000000000000000000000000000000000CF
:1011200000000000000000000000000000000000BF
:1011300000000000000000000000000000000000AF
:10114000000000000000000000000000000000009F
:10115000000000000000000000000000000000008F
:10116000000000000000000000000000000000007F
:10117000000000000000000000000000000000006F
:10118000000000000000000000000000000000005F
:1011900000F8FC1C3830381CFCF800F8F800F8F8AF
:1011A000000000F8FC8C8C8C0080D050F0E000F047
:1011B000F020300000808000808000808000000CE3
:1011C0001224120C0000000000000000800000004B
:1011D0000000000018244488442418000000000087
:1011E00000000000000000000000000000000000FF
:1011F00000000000000000000000000000000000EF
:1012000000000000000000000000000000000000DE
:101210000003838000808000030300080B0B0F078E
:1012200080408040830303030000030303030003A3
:101230008380808080C3C3C0C3C3C0C3C3C0C0C0D9
:10124000C0C0808080C0C04020180403000000009F
:10125000002050A05020000000000000000000000E
:10126000000000000000000000000000000000007E
:10127000000000000000000000000000000000006E
:10128000000000000000000000000000000000005E
:10129000000304081108040300000000000000001F
:1012A000010284C2E160301078ECFCF63A1B05853F
:1012B00097131213131111111111110181FFF9F973
:1012C000F2C2822225058D8B93B3E6C68C1C18389A
:1012D0007070E0C08000000000000018244824184E
:1012E00000000000000000000000000000000000FE
:1012F00000000000000000000000000000000000EE
:1013000000000000000000000000000000000000DD
:10131000000080E0E0703018181C1C1C0C1C161615
:10132000160627636DAECE0E0E0F0F0F0E060607C4
:10133000070606060606060606060666776767E7D8
:10134000070707060606070787C76723231210004B
:101350000808090B0F0E0E0C3C70F0C08000000056
:10136000000000000000000000000000000000007D
:10137000000000000000000000000000000000006D
:101380000000000000000000000000000000F0F875
:10139000DEFFF63611E0F0F8FCFEDE1E3F3F1EFEDB
:1013A000FEFCF8F2E4080107FC0000000000000069
:1013B000000000000000000000000000000000FF2E
:1013C00000000000003CFFE7311CE6FFFFFFFEFECF
:1013D0001F3F3F1FFFFEFEFCF8F8F031FBFFFEFC55
:1013E00038000000000000000000000000000000C5
:1013F00000000000000000000000000000000000ED
:1014000000000000000000000000000000000003D9
:10141000074F4C60607F7F7F7F7D4D4472724079C3
:101420007D7F7F7F7F7C7070737370707474747451
:10143000747474747474747476767676767676735F
:101440007070727272737070707C7F7F7F7F7D7D31
:1014500062727260687D7F7F7F7F777467676300E9
:10146000000000000000000000000000000000007C
:10147000000000000000000000000000000000006C
:10148000000000000000000000000000000000005C
:10149000000000000000000000000000000000004C
:1014A000000000000000000000000000000000003C
:1014B000000000000000000000000000000000002C
:1014C000000000000000000000000000000000001C
:1014D000000000000000000000000000000000000C
:1014E00000000000000000000000000000000000FC
:1014F0000000000000000000AE0010D580A83FB042
:10150000408D14A1C8DA1281FFD9F1DB302000A48C
:10151000A6AF0000341500080000002008000000FD
:10152000DE0900083C15000808000020C80400007F
:0C153000EE0900080000000000000000B0
:04000005080000ED02
:00000001FF
